:020000041000EA
:1000000000B5324B212058609868022188439860DF
:10001000D860186158612E4B002199600221596106
:100020000121F02299502B49196001219960352056
:1000300000F044F80222904214D00621196600F024
:1000400034F8196E01211966002018661A6600F04E
:100050002CF8196E196E196E052000F02FF8012189
:100060000842F9D1002199601B49196000215960AB
:100070001A491B48016001219960EB211966A021F2
:10008000196600F012F800219960164914480160C1
:100090000121996001BC002800D000471248134993
:1000A000086003C880F30888084703B5996A0420EC
:1000B0000142FBD001200142F8D103BD02B5186610
:1000C0001866FFF7F2FF186E186E02BD00000240BE
:1000D000000000180000070000035F00212200005C
:1000E000F4000018222000A00001001008ED00E03C
:1000F00000000000000000000000000074B24E7A12
:1001000000200420F7010010C3010010C5010010F9
:10011000C1010010C1010010C1010010C101001097
:10012000C1010010C1010010C1010010C701001081
:10013000C1010010C1010010C9010010CB01001065
:10014000CD010010CD010010CD010010CD01001037
:10015000CD010010CD010010CD010010CD01001027
:10016000CD010010CD010010CD010010CD01001017
:10017000CD010010CD010010CD010010CD01001007
:10018000CD010010CD010010CD010010CD010010F7
:10019000CD010010CD010010CD010010CD010010E7
:1001A000CD010010CD010010CD010010CD010010D7
:1001B000CD010010CD010010CD010010CD010010C7
:1001C00000BE00BE00BE00BE00BE00BE00F04BF888
:1001D000103800BEF2EB88711C9B00103C9B001095
:1001E0003402001090A31AE700202149086006C8D5
:1001F00081F3088810471F48006800282FD10DA4FC
:100200000ECC002902D000F012F8F9E71A491B4A77
:10021000002000E001C19142FCD1194988471949E9
:1002200088471949884700BEFDE701C901C29A42C3
:10023000FBD370473C9B0010C0000020380D00200D
:10024000B4A700100000042000000420B4A7001090
:1002500000100420001004200000000070470B482C
:1002600004F0FAFC0047EFF30580C0B270470000CD
:1002700008ED00E0000000D0380D00206C1B0020CD
:10028000092D0010810500102D2E0010575600007A
:1002900006005250ABB36053D8980010060052507D
:1002A000861C0302E8980010060052505422A29DBA
:1002B000F898001005005250DE65F468B4A70010ED
:1002C000F8B5C0460448054B10B5834203D0044B33
:1002D000002B00D0984710BD380D0020380D0020AD
:1002E0000000000006480749091A8B10C90FC918F9
:1002F00010B5491003D0044B002B00D0984710BD17
:10030000380D0020380D00200000000010B5074C0B
:100310002378002B09D1FFF7D5FF054B002B02D026
:10032000044800E000BF0123237010BD400E0020F0
:100330000000000020940010054B10B5002B03D0E6
:100340000449054800E000BFFFF7CCFF10BDC046E0
:1003500000000000440E00202094001070B5192009
:1003600084B001F039FCD02380221B06920401AC3A
:100370005A625A612200204B23CB23C2042303225A
:1003800002211E4801F0BCFB1D4D1E49280000F053
:10039000BFFD061E2CD01C4805F020FD1B4805F0B3
:1003A0001DFD01211A4805F0C1FD0122012128008F
:1003B00001F012FB0421280000F074FA0A21280041
:1003C000694401F021F928002200012101F0F4F92B
:1003D000104B28001B78002B07D100F0C5FD0E48FC
:1003E00005F0FCFC300004B070BD00F029FFF6E71A
:1003F0000A4805F0F3FCF5E7EC95001000C0034057
:1004000000180020900E0020449400106894001002
:10041000A0940010F8030020B49400102094001061
:10042000F0B5CE46474680B54A4C85B02378002BC0
:100430002BD002F029F9484B484D042206000F004A
:1004400028001900994601F083F8804602F01CF953
:100450000B004146020000294AD1414805F0BEFC8C
:10046000FA20800002F022F8002005F06FFDDF2363
:100470001840542830D052285FD12378002B53D114
:1004800005B00CBC90469946F0BD0F23334D6B442C
:100490001900280001F062F80028E5D0280000F0DB
:1004A00051FA2D4F020006003900280001F082F8B1
:1004B0006B46DB7B3868984605F0B4FA42460090FC
:1004C00001913100274805F031FD002005F03EFD87
:1004D000DF2318405428CED12378002BD0D101330C
:1004E0002148237005F07AFC280000F0A9FEC7E738
:1004F000921BBB411F004B461868160005F092FA8C
:100500003200009001913B00184805F00FFD4B466A
:10051000186805F087FA164B164A04F03FFE04F0FF
:100520001DFF4B4618609BE700231348237005F01E
:1005300055FC280000F018FDA2E74228A0D12800B1
:1005400000F02CFF0D4804F087FB00210300080099
:100550009847C046F8030020EC1700200018002040
:100560002C9500105095001074950010EC9400101C
:10057000E17A843F7B14AE47B095001055420000ED
:1005800010B505F0DFFCFFF7E9FE0028FBD0FFF710
:1005900047FFFFF745FFFAE710B5054801F0AAFA53
:1005A00005220621034B044800F056F910BDC04651
:1005B000900E00208096980000180020F8B557464D
:1005C0004546DE464E469A465E23E0B5C35C0400CF
:1005D0000D00002B00D07FE05333C35C98461F1CF6
:1005E000934200D985E04346FFB2DE1BF3B29B463F
:1005F000E06801F0BDFA0021608901F067FA00218E
:10060000606E01F03BFF3123994643460133DBB274
:100610009846524631232100E2547B1E3231DBB230
:1006200008009C46A144002F33D00A0003232A432C
:10063000200013405A425A4106233530401B834262
:100640009B415B4213425DD06346082B5AD900237D
:100650000022B808AE580133DBB28E500432984203
:10066000F8D103233A009A431300AD188818624664
:10067000D21AD2B29F4209D02B780370002A05D03B
:100680006B784370012A01D0AB78837060460130EB
:1006900008185B46002B06D05E46013EF2B20021F0
:1006A000013205F035FA210042464846103101F08A
:1006B00053FA5223227C0121E254608901F006FAA8
:1006C0000021606E01F0DAFE01F066FA3CBC904653
:1006D0009946A246AB46F8BD56425641F3B29B46F8
:1006E000171C202A07D85B46FFB2FB18DBB29846DE
:1006F0007EE7171C77E720275B46FFB2FB18DBB2CB
:10070000984675E70023EA5CCA540133DAB297428F
:10071000F9D1BBE7F8B5CE4647465E2380B5C35C4A
:1007200004000E00002B00D081E05333C55C2F1C69
:10073000954200D981E0FFB2E06801F019FA00218A
:10074000608901F0C3F9606E002101F097FE31234A
:1007500099466B1CDBB29846200031236122A144EC
:100760003230E254002D05D0013DEAB2FF210132C2
:1007700005F0CEF9210042464846103101F0ECF96F
:100780005223227CE254002F43D02100781E1131E5
:10079000C0B20B0000283AD0023FFBB232009846AC
:1007A00003230A43250013405A42534106221435BD
:1007B000AD1BAA42924152421A4244D04346082BF2
:1007C00041D90023002285088F580133DBB2B7508E
:1007D00004329D42F8D1032302009A431300B51856
:1007E0008A189446C21AD2B298420CD063461B783B
:1007F0002B70012A07D063465B786B70022A02D007
:1008000063469B78AB7043460133F618CB181B78D0
:1008100033706089012101F059F90021606E01F007
:100820002DFE01F0B9F90CBC90469946F8BD171C95
:10083000202A04D8FFB23D007EE7171C7BE7202763
:10084000FFB23D0078E70023CA5CF2540133DAB20C
:100850009042F9D1D7E7C046F8B504000F00160062
:100860001D0001F047F95323202227816681E560AE
:10087000E254002201210733E252553B5D32A3547A
:100880000132A154002263664F33E254034B9D4270
:1008900001D8034BE3602000F8BDC046B8880000D3
:1008A00080969800F8B5DE4657464E464546040009
:1008B000E0B50B1C20293ED9202320265322A35427
:1008C00031239B46213B9A4621339946202311250B
:1008D00098463227A344A24401E05323E65CE06833
:1008E00001F046F90021608901F0F0F80021606E06
:1008F00001F0C4FD43464A462B43A354514602220D
:100900005846E65501F028F95223227C0121E25491
:100910006089013501F0DAF8EDB20021606E01F076
:10092000ADFD01F039F9172DD7D13CBC9046994661
:10093000A246AB46F8BDCEB2002EBFD10123013690
:10094000BCE7C0465323C05C7047C046F0B5DE46E6
:1009500057464E4645460400E0B5052083B001F0F9
:10096000A5FDE06801F004F90021608901F0AEF80E
:100970000021606E01F082FD312399464A460D3B0D
:10098000A3540E339846250026004246522731359F
:1009900010362D33A3543100303A280001F0DCF832
:1009A000237C0121E355608901F090F80021606EFD
:1009B00001F064FD01F0F0F88C235B002366E06831
:1009C00001F0D6F80021608901F080F80021606E06
:1009D00001F054FD26234A46A35442461F3BA3542C
:1009E0003100303A280001F0B7F8237C0121E355AB
:1009F000608901F06BF80021606E01F03FFD01F0AD
:100A0000CBF8E06801F0B4F80021608901F05EF8ED
:100A10000021606E01F032FD1D239B464B465A4675
:100A2000E254CE339A46434652463100E2542800FF
:100A3000FD3A01F091F8237CE355617C60890191D6
:100A4000012101F043F80021606E01F017FD01F073
:100A5000A3F8E06801F08CF80021608901F036F815
:100A60000021606E01F00AFD502001F05FF8E055B2
:100A7000732001F05BF80121608901F027F8002163
:100A8000606E01F0FBFC01F087F8E06801F070F89F
:100A90000021608901F01AF80021606E01F0EEFC7F
:100AA0004B465A46E254434652463100E25428002F
:100AB000FD3A01F051F8237C0121E355637C608904
:100AC000984601F003F80021606E01F0D7FC01F0B8
:100AD00063F8434601995B1A5A4253415A22A35480
:100AE0004346002B25D0884500D1F2E1E06801F0B3
:100AF0003FF80021608900F0E9FF0021606E01F0FD
:100B0000BDFC31233D22E25400220133E254310086
:100B10002800023201F020F85223227C0121E25405
:100B2000608900F0D3FF0021606E01F0A7FC01F0A6
:100B300033F800239A4652465C33E254E06801F0F1
:100B400017F80021608900F0C1FF0021606E01F0FC
:100B500095FC312399464A460B33A35452465227FB
:100B60000A3BE254310002322800984600F0F4FFBC
:100B7000237C0121E355608900F0A8FF0021606E0D
:100B800001F07CFC01F008F852465E23E068E25474
:100B900000F0EEFF0021608900F098FF0021606EF8
:100BA00001F06CFC21234A46A35442461E33A35451
:100BB0003100303A280000F0CFFF237C0121E355BB
:100BC000608900F083FF0021606E01F057FC00F0A7
:100BD000E3FFE06800F0CCFF0021608900F076FFC1
:100BE0000021606E01F04AFC22234A46A35442468B
:100BF0001F3BA3543100303A280000F0ADFF237CA6
:100C00000121E355608900F061FF0021606E01F071
:100C100035FC00F0C1FF53232022E254333B9846B9
:100C200011339A462023413F9B4602E05323E35C65
:100C30009846E06800F09CFF0021608900F046FFC4
:100C40000021606E01F01AFC5B4652463B43A35400
:100C5000322342463100E25428000222994600F035
:100C60007BFF522398464246237C0121A35460898E
:100C7000013700F02BFFFFB20021606E01F0FEFB98
:100C800000F08AFF172FD1D1E06800F071FF00213A
:100C9000608900F01BFF0021606E01F0EFFB232351
:100CA0005246A3544A46203BA35431000222280056
:100CB00000F052FF4246237C0121A354608900F0DA
:100CC00005FF0021606E01F0D9FB00F065FF5D2398
:100CD0000522E254E06800F04BFF0021608900F03B
:100CE000F5FE0021606E01F0C9FB25235246A35496
:100CF0004A462733A35431000222280000F02CFF7B
:100D00004246237C0121A354608900F0DFFE0021CC
:100D1000606E01F0B3FB00F03FFFE06800F028FFD9
:100D20000021608900F0D2FE0021606E01F0A6FB78
:100D300027235246A3544A464933A3543100022282
:100D4000280000F009FF4246237C0121A35460895A
:100D500000F0BCFE0021606E01F090FB00F01CFF73
:100D6000E06800F005FF0021608900F0AFFE00217F
:100D7000606E01F083FBE22000F0D8FE4346E054B1
:100D80000121608900F0A2FE0021606E01F076FB77
:100D900000F002FFE06800F0EBFE0021608900F047
:100DA00095FE0021606E01F069FBE12000F0BEFEBF
:100DB0004346E0540121608900F088FE0021606E06
:100DC00001F05CFB00F0E8FEE06800F0D1FE0021DD
:100DD000608900F07BFE0021606E01F04FFB5346FE
:100DE0002022E2540C234A463100A3542800022258
:100DF00000F0B2FE4246237C0121A354608900F03A
:100E000065FE0021606E01F039FB00F0C5FEE06870
:100E100000F0AEFE0021608900F058FE0021606EF7
:100E200001F02CFB00235246A3544A46FF33A3543F
:100E300031000222280000F08FFE4246237C01216F
:100E4000A354677C608900F041FE0021606E01F0D0
:100E500015FB00F0A1FEBB070CD55923E7540E3F4C
:100E600078427841C0B203B03CBC90469946A24655
:100E7000AB46F0BD02231F435923FFB2E754E0689D
:100E80009B4600F075FE0021608900F01FFE0021E6
:100E9000606E01F0F3FA53462022E2544B463100D3
:100EA000E75428001E3A00F057FE4246237C0121F9
:100EB000A354608900F00AFE0021606E01F0DEFAA2
:100EC00000F06AFE0021114801F0D8FA5B46E75CA9
:100ED000C5E7E06800F04CFE6089002100F0F6FDF7
:100EE0000021606E01F0CAFA502000F01FFEE055AC
:100EF000732000F01BFE6089012100F0E7FD002156
:100F0000606E01F0BBFA00F047FEEFE588130000C9
:100F100010B5144B0289040041609A4220D04089E8
:100F200098421DD0824210D01000012100F0BEFD79
:100F30006089012100F0BAFD23896089834204D0D1
:100F40001800002100F0C2FD6089012100F0BEFD03
:100F5000606E002101F092FA2000FFF7F7FC00E03C
:100F6000002010BDFFFF0000F0B55746DE464E469C
:100F70004546E0B55927C35D040083B09A0700D405
:100F800024E1050006003135103601271F4359239F
:100F9000E754E06800F0ECFD0021608900F096FD68
:100FA0000021606E01F06AFA312399464A46113BEE
:100FB000A3541233E75452272F3A310028009846A1
:100FC00000F0CAFD237C0121E355608900F07EFD1D
:100FD0000021606E01F052FA00F0DEFDE06800F0E2
:100FE000C7FD0021608900F071FD0021606E01F0F5
:100FF00045FA27234A46A35442464933A3543100B5
:10100000303A280000F0A8FD237C0121E3556089D7
:1010100000F05CFD606E002101F030FA00F0BCFDD4
:1010200020896389834202D0012100F04FFD5B27B4
:10103000E35D9846002B00D174E05D23E35CE0683B
:10104000984600F095FD0021608900F03FFD0023E7
:101050000021606E994601F011FA43465A1CD3B242
:101060002A213122A1544246501EC2B227009C467A
:1010700093462300424654373233002A39D02200A7
:1010800049465832934249410A00210048463631C8
:101090008F4240410100114308225A459241524279
:1010A0000A4200D1C2E01A003A43920700D0BDE0E4
:1010B0004246920892460021002278580132585048
:1010C000D0B204318245F8D80322414691430A0048
:1010D0005946881AC0B2BF189B18904509D03A7873
:1010E0001A70002805D07A785A70012801D0BA7891
:1010F0009A7062463100280000F02EFD5223227CB7
:101100000121E254608900F0E1FC0021606E01F0F1
:10111000B5F900F041FD03B03CBC90469946A246AB
:10112000AB46F0BDE06800F023FD0021608900F0CF
:10113000CDFC0021606E01F0A1F931239B465A4697
:101140002F3BA35430339A465246CD33A35431003B
:101150002800303A00F000FD522399464A46237C8D
:101160000121A354637C6089019300F0AFFC00214E
:10117000606E01F083F900F00FFDE06800F0F8FC0C
:101180000021608900F0A2FC0021606E01F076F978
:1011900022235946019A6354213B9A431300524635
:1011A0003100A3542800303A00F0D6FC4A46237C94
:1011B0000121A354608900F089FC0021606E01F0D8
:1011C0005DF900F0E9FC4346E355A4E702261E431F
:1011D000F6B2C655C06800F0CBFC0021608900F073
:1011E00075FC0021606E01F049F931232022E254A0
:1011F0000133E65425002600313510363100280031
:101200001E3A00F0A9FC5223227C0121E25460899D
:1012100000F05CFC0021606E01F030F900F0BCFCD5
:101220000021064801F02AF9E35DAEE600217A5C70
:101230005A540131CAB29045F9D15AE788130000D7
:10124000F0B5D6464F4646460400C0B563890089CE
:10125000834202D0002100F039FC236E1800D91718
:1012600001F00CF95C23E35C002B00D07AE05923F9
:101270000122E55C26009543E554E06800F078FC27
:101280000021608900F022FC0021606E01F0F6F878
:1012900031239A4652462700113BA3541233E5549A
:1012A0005225313610372F3A39003000984600F079
:1012B00053FC237C01216355608900F007FC002169
:1012C000606E01F0DBF800F067FCE06800F050FCB5
:1012D0000021608900F0FAFB0021606E01F0CEF879
:1012E00052460223A3544246FD3339003000A35432
:1012F000303A00F031FC237C01216355637C608926
:10130000994600F0E3FB0021606E01F0B7F800F0B1
:1013100043FCE06800F02CFC0021608900F0D6FB63
:101320000021606E01F0AAF852462223A3544A46D7
:1013300001231343424639003000A354303A00F0F1
:101340000BFC237C01216355608900F0BFFB002169
:10135000606E01F093F800F01FFC1CBC90469946AB
:10136000A246F0BDE06800F003FC6089002100F0B7
:10137000ADFB0021606E01F081F8E12000F0D6FBAA
:101380005223E0546089012100F0A0FB0021606E2F
:1013900001F074F800F000FC69E7C04670B5040085
:1013A00000896389834202D0002100F08FFB59231A
:1013B0000222E55C9543E554E06800F0D9FB6089C2
:1013C000002100F083FB606E002101F057F831230B
:1013D000202221002000E2540133E5541031313045
:1013E0001E3A00F0B9FB5223227C0121E2546089AD
:1013F00000F06CFB0021606E01F040F800F0CCFBC7
:1014000070BDC04670B50400581E83415842102379
:101410000340A0332000FFF7D1F82089638983427D
:1014200002D0012100F052FB01F02EF9002900D179
:1014300084E0FA220023920003F0A6FC0600522565
:10144000E06800F095FB0021608900F03FFB00217F
:10145000606E01F013F8FF2000F068FB6055012179
:10146000608900F033FB0021606E01F007F800F0A6
:1014700093FB3022635D1A4218D101F005F900296F
:101480000CD0FA220023920003F07EFC801B5F2820
:10149000D6D95F2301220020E25470BDFA218900D1
:1014A00003F030FC801B5F28CAD9F2E720896389EA
:1014B000834249D1E06800F05BFB0021608900F0C5
:1014C00005FB0021606E00F0D9FF312327222100A7
:1014D00020005225E25401334932E25410316E3A71
:1014E000313000F039FB237C01216355608900F025
:1014F000EDFA606E002100F0C1FF00F04DFB635D6E
:101500000120DB06C9D5E06800F032FB00216089CC
:1015100000F0DCFA0021606E00F0B0FFE12000F086
:1015200005FB60550121608900F0D0FA606E002152
:1015300000F0A4FF00F030FB0020AEE7FA218900A4
:1015400003F0E0FB06007AE7002100F0BFFAB1E704
:1015500010B50023FFF756FF10BDC04670B504005C
:10156000C0680D0000F004FB0021608900F0AEFAB5
:101570000021606E00F082FFFF2000F0D7FA5226B3
:10158000A0550121608900F0A1FA0021606E00F0F1
:1015900075FF00F001FBA35D1B075B0F052B04D853
:1015A000002D04D001202B7070BD0020FCE701202D
:1015B000FAE7C04610B50400FFF7ACF8E06800F0A9
:1015C000D7FA6089002100F081FA606E002100F0F6
:1015D00055FF3123272221002000E2540133193224
:1015E000E254103131303E3A00F0B6FA5223227CF8
:1015F0000121E254608900F069FA0021606E00F078
:101600003DFF00F0C9FA10BDF0B5D64646464F463C
:101610005D230400C0B5C75CC0680D0000F0A8FAE7
:101620000021608900F052FA0021606E00F026FF70
:1016300031237A1C9846D3B29A462A2131232600B8
:10164000E1547B1EA0443236DBB2002F31D028009B
:1016500027393043014020004A424A4106213530B3
:10166000401B814289414942114200D19BE0082B35
:1016700000D898E0BA089446002100202A58013189
:10168000C9B2325004308C45F8D103213800884368
:101690001B1A01002A18DBB230188F4209D01178CA
:1016A0000170002B05D051784170012B01D0937847
:1016B000837010239946A14452464946404600F0A3
:1016C0004BFA5223227C0121E254608900F0FEF99A
:1016D0000021606E00F0D2FE00F05EFA5D23E0684B
:1016E000E75C00F045FA0021608900F0EFF9002185
:1016F000606E00F0C3FE7A1CD3B29A4630213123CB
:10170000E1547B1EDBB2002F2ED030002D39284350
:10171000014048424841210035314A1B062191428F
:1017200089414942014236D0082B34D9BA0894463F
:10173000002100202A580131C9B2325004308C45B2
:10174000F8D10321380088431B1ADBB22D18361854
:10175000874209D029783170002B05D069787170E3
:10176000012B01D0AB78B37052464946404600F099
:10177000F3F95223227C0121E254608900F0A6F99A
:101780000021606E00F07AFE00F006FA1CBC904664
:101790009946A246F0BD0023E95CF1540133D9B269
:1017A0008F42F9D1E0E70023E95CF1540133D9B26B
:1017B0008F42F9D17DE7C046F8B54E464546DE4634
:1017C00057460400E0B50D001600002908D0052991
:1017D00000D8D3E03CBC90469946A246AB46F8BD43
:1017E0005D233100C25C543004F098F95B23012280
:1017F000E254774BE0685B5D270099465D23E35C2C
:101800003137984600F0B4F90021608900F05EF9A4
:10181000606E002100F032FE43465A1CD3B29C4653
:101820004A461F231340202213433122A354434628
:101830005A1ED3B220009A4643463230002B34D091
:101840000100032331430B405942594123003533F2
:101850009B1B994606234B459B415B420B4200D1A3
:10186000ADE05346082B00D8A9E043469B089946B3
:101870000021002372580133DBB2425004319945F4
:10188000F8D103234146994353465A1AD3B27618E6
:101890004018884509D032780270002B05D0727844
:1018A0004270012B01D0B378837026006246103657
:1018B0003100380000F050F95223227C0121E2541B
:1018C000608900F003F90021606E00F0D7FD00F0A0
:1018D00063F9E06800F04CF96089002100F0F6F847
:1018E000606E002100F0CAFD31239A4652462F3B1C
:1018F000A354303399464A46CD33A35431003800BF
:10190000303A00F029F9522398464246237C0121BF
:10191000A354637C60899B4600F0D8F80021606E78
:1019200000F0ACFD00F038F92A4BE0685B5D012562
:101930009D405B461D4300F01BF96089002100F0CB
:10194000C5F8606E002100F099FD52462223A35491
:101950004B46EDB231003800E5542F3A00F0FCF868
:101960004246237C0121A354608900F0AFF8002196
:10197000606E00F083FD00F00FF92BE7012900D124
:1019800037E7134BC0685B5C2700984600F0F0F81F
:101990000021608900F09AF80021606E00F06EFD71
:1019A00042461F231340202213433122A35432788E
:1019B00032232600E25431370222103678E7002322
:1019C000F25CC2540133DAB29045F9D16DE7C046FA
:1019D000F895001000960010F8B5CE464746040072
:1019E00080B5C0688946160000F0C2F80021608901
:1019F00000F06CF80021606E00F040FD31230622FB
:101A0000E2540133F932E254223B98462700A044C5
:101A1000313741463800FD3A00F09EF85223227CCF
:101A20000121E2546089657C00F050F80021606E6D
:101A300000F024FD00F0B0F807239D434B464A46D2
:101A4000032B00D903225200B218E068154300F0BE
:101A50008FF86089002100F039F8606E002100F0F5
:101A60000DFD31232622EDB2E25401334146380008
:101A7000E554243A00F070F85223227C0121E2540C
:101A8000608900F023F80021606E00F0F7FC00F0A0
:101A900083F80CBC90469946F8BDC04610B5024884
:101AA00000F028F810BDC046940E002070B5040068
:101AB0000D0000F091F80123D022A3401206002D62
:101AC00001D0536270BD9362FCE7C0460123D0226F
:101AD00083401206002901D0536170479361FCE7EF
:101AE0007047C04610B50400042104F01DF8200022
:101AF00010BDC046014B08330360704708960010C4
:101B000070B5150006001C00074B080001211E607F
:101B100000F04AF82800012100F046F801212000D9
:101B200000F042F870BDC046980E002000B585B0A8
:101B30006B466A46D91D0023D3730F22054B0870EC
:101B40006A441868012307F05BFC6B46D87B05B03C
:101B500000BDC046980E002010B504001300034AD3
:101B600010680A00210007F04BFC10BD980E002001
:101B700010B5084C0100206806F016FF0721206808
:101B8000802302685B015140CF2203430A401A6060
:101B900010BDC046980E002010B5024B186806F024
:101BA0007DFF10BD980E0020094A83009446402214
:101BB000634410B51C68C0006240C02414408022F9
:101BC000520113431C60034B9C466044416010BDAE
:101BD00004C00140004001400123D022834012068E
:101BE00093629361094A83009446402263441968D2
:101BF000C0004A40C02111408022520113431960A5
:101C0000034B9C46052360444360704704C0014079
:101C100000400140F8B5EFF3108772B60E4E3368FE
:101C2000002BFCD0BFF35F8FCB08C4180725A44658
:101C3000C45C01230D40AB4018002040234208D172
:101C4000624623431370BFF35F8F306087F31088C1
:101C5000F8BD100001F0ECF82C0100D0F8B5CE462C
:101C600047468C4680B5EFF3108872B6214D2C683C
:101C7000002CFCD0BFF35F8F9A422CD8D4080721E8
:101C8000055D0619012411408C402C421FD007210C
:101C90008946063909E0D408055D06194C460F004F
:101CA0001440A7403C002F4211D001329342F2D29F
:101CB00001204042BFF35F8F00220E4B1A6088F371
:101CC000108800280FDB0CBC90469946F8BD2C43C9
:101CD00010003470EEE7BFF35F8F00232B6088F3B2
:101CE0001088012040426346002BECD0089801F098
:101CF0009FF8C0462C0100D0024B18688007C00F27
:101D00007047C04600C006400021044B044ABFF3A0
:101D10005F8F02C39342FAD17047C046000100D0E2
:101D2000800100D0044A1078431CDBB2172B00D985
:101D3000102313707047C046F903002000B5054B0F
:101D400083B00100009318221F230348FFF786FF8A
:101D500003B000BD189600104013002083680B48A4
:101D600010B5844661446244090112019A18591859
:101D700054684B6801209C4201D802D00020C0B2B8
:101D800010BD12680B689A42F9D8F7E7FFFFFF0F02
:101D90000A4B1968EFF3108072B60A68002AFCD06B
:101DA000BFF35F8F1B68BFF35F8F00221A6080F361
:101DB000108840BF002000217047C04674180020E2
:101DC000F8B557464E464546DE46E0B5434D81469A
:101DD0008A466A68EFF3108872B61368002BFCD04D
:101DE000BFF35F8F2E68B47B002C3ED06700336852
:101DF0003F19033FDA195378B373002B00D1F37303
:101E00000023937053701370A968354A8C46494675
:101E1000A218120162441160514651603149D360E9
:101E200091603268D219937053701370737B9B4624
:101E3000002B35D022001900B068736898473268CB
:101E4000002820D05B4658465B005B44D719033B13
:101E5000B870D118D35C002B00D07B705B460C703F
:101E600073735C451DD0002626E06B68BFF35F8F5F
:101E70001C6088F31088012040423CBC9046994683
:101E8000A246AB46F8BD5B465B005B44033BD31800
:101E90009C70D119D25D002A00D05A705B460B703D
:101EA00074734A465346287D00F078FC061EDAD04B
:101EB0002100286800F0EAFEEB686A681B19013B04
:101EC0001B78BFF35F8F0021116088F3108800201A
:101ED000002ED2D118022043CFE7C046FC030020D9
:101EE000FFFFFF0F911D0010F8B5574645464E46BF
:101EF000DE46E0B599460CAB19780DAB1B780500B2
:101F000090469A460768002912D1BE7B002E45D024
:101F100074003B68A419033C1B195A783100BA734A
:101F2000002A00D1FA7300229A705A701A7003E0E6
:101F30000E004C006418033C2C4B00229C46AB68FE
:101F400061449C464346090161440B604B464B602B
:101F50000A9B8B600B9BCB603B681B199A705A7075
:101F60001A707B7B9B46002B2CD032005946B868F8
:101F70007B6898473A68002817D05B4658465B0054
:101F80005B441419033BA070D118D35C002B00D024
:101F900063705B460E707B73B34514D030003CBC5D
:101FA00090469946A246AB46F8BD5B465B005B4453
:101FB000033BD3189E701119125D002A00D05A708D
:101FC0005B460B707E7342464B46287D00F0E6FB75
:101FD000041E06D05346002B03D13100286800F0C0
:101FE00055FE0E9B002BD9D01C70D7E7FFFFFF0FCB
:101FF000F0B5DE464E46574645460023E0B58DB067
:102000000A936B4B8200D3580B90994600239B4652
:102010004B46079300F038FB079C06000F006268F0
:10202000EFF3108572B61368002BFCD022000794E2
:10203000BFF35F8F2468637B9946002B67D092685B
:102040005C4B90464B441B01984443461A685B68BE
:1020500010001900801BB94100295FDD0B9800F0CA
:102060009DFB00230026984600279A46079C63683C
:10207000BFF35F8F5A461A6085F310885346002BD2
:1020800008D10028C6D10DB03CBC90469946A24666
:10209000AB46F0BD0A9B414618024B461843D04759
:1020A000089009916268EFF3108572B61368002BEF
:1020B000FCD00794BFF35F8F0899099A002A48DB88
:1020C000114303D0079B1B69002B5DD1079B1B6845
:1020D000DA7B002A07D051008A1819688C464946D5
:1020E0006244033A51704A46DA734B46079A013B01
:1020F000D168CA5C0132CA545B46079A13615368BF
:10210000BFF35F8F5A461A6085F3108882E7002379
:102110000026984600279A460020A7E7002901D10B
:1021200000289BD10021200000F012FD43461E68CC
:102130005F689B68079A9A464346DB689846D3686F
:102140004B44013B1B780A931B020343136100209D
:102150008CE72369002BB9D033003C005B1A944113
:102160001A002300A74219D89F421BD05946049158
:102170000121039149460291414601915146079838
:102180000091FFF7B1FEB7E700F07EFA089A099BCD
:1021900006000F0092197B419942E5D90122524273
:1021A000D317E3E79642E1D901225242D317DDE784
:1021B000F0170020FFFFFF0F10B5124C6368002BD3
:1021C00004D00A21104800F07BFB10BD23000F4A09
:1021D0001021206800F0DAFB032000F049FA032008
:1021E00000F04EFB03200A4900F092FAFFF79AFD37
:1021F000084B9C46032360442375074B80006060B6
:10220000DC60DEE7FC030020741800205D1D001078
:10221000F11F001040000034F01700200048704704
:10222000FC030020F0B557464546DE464E46E0B575
:1022300085B0019310AB1B780027039300238046E1
:102240009A46009243465A68EFF3108972B61368B3
:10225000002BFCD0BFF35F8F43461D68AC7B002C86
:102260004FD066002B683619033E9B195A78AA7323
:10227000002A00D1EA7342469F705F701F70926817
:10228000524B94460099019AE3181B01634419606C
:102290005A600E9A9A600F9ADA602B689B199F70A9
:1022A0005F701F706B7B9B46002B46D0220019008D
:1022B000A8686B6898472A68002831D05B46584662
:1022C0005B005B449619033BB070D118D35C002BC4
:1022D00000D073705B460C706B735C452ED0434628
:1022E000DB681B19013B187843465B68BFF35F8FBF
:1022F0001F6089F310885346002B2ED10002204323
:1023000007E05B68BFF35F8F1C6089F310880120D2
:10231000404205B03CBC90469946A246AB46F0BD53
:102320005B465B005B44033BD3189C709119925D44
:10233000002A00D05A705B460B706C734346187DC0
:10234000009A019B00F02AFA82460028C7D0434633
:102350002100186800F09AFCC1E7039B002B32D0E3
:102360000E9B00200F999847030004000D000B43BB
:1023700029D000290DDA0098019902000B00121BE8
:10238000AB41994215D81AD000920193039B9A460B
:1023900058E700F079F902000B00A4185D41200015
:1023A000290000900191AB4203D8EFD100998A42F5
:1023B000ECD901235B42DC1700930194E6E7009916
:1023C0009142E1D9F5E70020A3E7C046FFFFFF0FE8
:1023D000F0B504000D0006267642F717C6463619FA
:1023E0006F4100B58F4213D810D000F04DF9320084
:1023F0003B00121A8B41002B14DC002B37D0290034
:10240000200000F075F904BC9046F0BD8642ECD97E
:102410000026002700F038F932003B00121A8B41E9
:10242000002BEADD30003900FFF7CAFC0028E6DBAC
:1024300000239846BC460F4A0F4F7B6A9C4504D840
:10244000B96A8E42DBD99C45D9D11168EFF310806F
:1024500072B60B68002BFCD0BFF35F8F1368BFF31D
:102460005F8F4146196080F3108820BFE5E7002A9E
:10247000C5D0D7E7741800200040054070B50400AF
:102480000D0000F001F902000B0020002900801867
:1024900059418B4205D802D0FFF79AFF70BD8242A6
:1024A000FAD901204042C117F6E7C04670B50600D0
:1024B00000F0EAF8FA2204000D00002330000021A9
:1024C000920003F095FA001969418D4205D802D0B7
:1024D000FFF77EFF70BD8442FAD901204042C11748
:1024E000F6E7C046F8B5CE46474680B506000C0074
:1024F000FFF766FC00280CDC2D4B0020596A8C424B
:1025000003D89B6A0130B34245D30CBC9046994630
:10251000F8BD20BF274D6A68EFF3108772B61368C5
:10252000002BFCD0BFF35F8F2B68C1B29C465B7B56
:102530008B4235D0FF2303405A0091466246126811
:10254000994490464A464244033A9278002A1DD064
:10255000EA68000A90464344013B1B78C0B28342BC
:1025600021D06B68BFF35F8F00221A6087F3108859
:102570000F4A0020536A9C42C7D8926A0130B24287
:10258000C3D2E41A601E8441E0B2BEE72B699842D0
:10259000E7D12A61E5E7641A601E8441E0B2B4E73E
:1025A000FF230340D4E7604600F070FBD9E7C04644
:1025B00000400540FC030020F0B5D6464F46464695
:1025C000C0B5EFF305833F22134018001038EFF336
:1025D000108C72B6204D2A68002AFCD0BFF35F8FA2
:1025E0000122110081401D4C884661631C4917007F
:1025F0000E788A463100C1400F400A4215D0194971
:102600008200646A51588C4219D3174BD258434602
:102610009E4353461E70BFF35F8F00232B608CF3E5
:102620001088002A06D0904704E0BFF35F8F2F6028
:102630008CF310881CBC90469946A246F0BD0B4A0C
:102640009B00904643441A681A60BFF35F8F0023D3
:102650002B608CF31088EDE7280100D00040054086
:10266000A71800208018002030120020D03F05401D
:1026700010B50100024A0348FFF7CCFA10BDC0466E
:1026800034960010A4180020034B596A0A00986A77
:10269000596A8A42FAD170470040054070B504007B
:1026A0000D00124A536A1900966A536A8B42FAD196
:1026B0003000190024184D41AB4211D80ED02B0028
:1026C0000A494A6A9A42FCD307D1084A02E0516A91
:1026D000994202D1916AA142F9D370BDA642EED9C6
:1026E000012301246442E5175B42E9E7004005400D
:1026F000064A536A9942FCD807D1044B02E05A6A51
:10270000914202D19A6A8242F9D370470040054053
:1027100070B504000D00EFF3108672B61A4A136804
:10272000002BFCD0BFF35F8F002D1BD0200000F0EA
:102730001BFD164981420AD0200000F01DFD012139
:10274000200000F0F7FC0123A340114A1360114B55
:10275000A400E550BFF35F8F00220B4B1A6086F395
:10276000108870BD0B4BA200D5500122A2400A492F
:1027700020000B7893430B70044900F027FD0021E3
:10278000200000F0D7FCE5E7280100D0B9250010B3
:102790003860054030120020A7180020F0B54F46E1
:1027A000D6464646C0B50700304C616A0D00A66AA1
:1027B000616AA942FAD18B4208D805D001201CBC1D
:1027C00090469946A246F0BDB242F7D9EFF3108980
:1027D00072B6274801680029FCD0BFF35F8F01253E
:1027E0002449BD408C460978204C0E002E43884673
:1027F000F1B28A46614650460870391D1E4889006C
:1028000065630A51B9000B50216A0020294219D092
:10281000616A0800A66A616A8142FAD18B4219D8BE
:1028200001D1B24216D8C2451DD0104B1F201D62E7
:102830005D6301230740BB40104A1E3813606346A6
:1028400042461A70BFF35F8F0022094B1A6089F36A
:102850001088B4E70020BFF35F8F0022044B1A609A
:1028600089F31088ABE70120ECE7C0460040054043
:10287000280100D0A71800208018002080E200E086
:1028800010B5EFF3108472B60A490B68002BFCD028
:10289000BFF35F8F01238340074A08481362027821
:1028A0009A430270BFF35F8F00230B6084F310889C
:1028B00010BDC046280100D000400540A7180020E8
:1028C000024B9C466144890001607047400000341F
:1028D00010B50400FFF726FA01002000FFF7F0FF13
:1028E000FF232371BFF35F8F10BDC04610B50400F6
:1028F000FFF718FA01002000FFF7E2FFFF23A38093
:10290000BFF35F8F10BDC04610B504000120FFF774
:1029100015FA034BC3189B002360BFF35F8F10BDF4
:102920004000003470B505000E001400002924D0CA
:10293000002A24D080686B689847296800280ED048
:1029400063001B197200033B9219CB18033A9E7067
:1029500088188A5C002A14D1047030000EE07300DD
:102960009B196200033B1219CB18033A9C7088181C
:102970008A5C002A00D05A700670200070BD0800E2
:10298000FCE75A7004703000F8E7C04630B5836049
:102990000023CCB243730133047342608373C47366
:1029A0000D000068012C06D9421C0133DBB2137004
:1029B00003329C42F9D1FF2129404B0059180023D2
:1029C00040180338437030BDF8B5CE464746060080
:1029D0000C0080B5002907D04D0003686D18033D39
:1029E0005A195778002F04D120000CBC9046994604
:1029F000F8BD7900C9190339884643445978894696
:102A000000215970517073683A002100806898471E
:102A10003368002814D042469A18947059195B5DA7
:102A2000002B00D053700F70270049463000FFF78D
:102A3000CBFF390002003000FFF774FF0400D3E73A
:102A4000424641465D19AF709A185B5C002B00D07E
:102A50006B701470E9E7C046F0B557464546DE4650
:102A60004E46E0B50D006B0001685B19DF1E0400E7
:102A7000C85D83B00192CA1900284CD043001B18CE
:102A8000033BCB185E78B446002E16D1019E002E73
:102A90003ED0E67B002E04D073009B19CB18033B7D
:102AA0005D70E57300282FD10023537003B03CBC48
:102AB00090469946A246AB46F0BD72006244033A86
:102AC00089184A78904600224A7091465A7001004F
:102AD00032002000FFF726FF43468246002B07D036
:102AE0005B0021684344033BCB185A78002A16D177
:102AF000424651462000FFF715FF2168019BCA1985
:102B0000002BC6D10028CFD043001B18033BCB18A5
:102B100000219970C8E7019B002BBAD1C4E750008F
:102B2000801803380918487883464846487058701A
:102B300041462000FFF7F6FE594680462000FFF789
:102B400043FF414602002000FFF7ECFE8046CFE73E
:102B5000F0B54E464546DE465746E0B5467B040096
:102B600075000068AD19033D83B00191415D4219C4
:102B700000294ED04B005B18033BC3185F78BC465E
:102B8000002F18D1019D002D40D0E57B002D04D0F1
:102B90006B005B19C318033B5E70E673002931D1EB
:102BA000002330005370617303B03CBC90469946DB
:102BB000A246AB46F0BD7A006244033A80184278E0
:102BC00093460022427091465A7020003A00FFF767
:102BD000A9FE5B468046002B07D05B0021685B4462
:102BE000033BCB185A78002A17D15A464146200099
:102BF000FFF798FE019B010020684219002BC4D109
:102C00000029CDD04B005B18033BC31800209870FF
:102C1000C6E7019B002BB8D1C2E7500080180338EB
:102C2000091848788246484648705870594620002E
:102C3000FFF778FE53468346002B07D05B002168E0
:102C40005344033BCB185A78002A06D159465246C2
:102C50002000FFF767FE8346C7E75000801803385F
:102C6000091848464F784870587051462000FFF7C1
:102C700059FE390081462000FFF7A6FE49460200B2
:102C80002000FFF74FFE8246E0E7C04670B5040023
:102C900000292CD0437B8B422ED005684800401879
:102CA000033828188278002A21D053009B18033B50
:102CB000EA5CEE188A4202D11BE0002A08D05300D9
:102CC0009B18033BEB185A788A42F6D142785A7027
:102CD00000230122837043702000FFF7BDFE617B5B
:102CE00002002000FFF71EFE6073012000E00020BC
:102CF00070BD43783370EBE701221900FFF7ACFE9B
:102D000060730120F4E7C0462C4B2D4A70B51A6061
:102D10002C4A2D4B2D491A6010008B689843FBD12B
:102D20002B4C2C4B9C4209D2013B1D1BAD0801359D
:102D3000AD002D1908CC9847AC42FBD100F096F8B5
:102D4000254A214B1A60214A9368DB018033FBD16D
:102D50004022224B224C234D9A675A671A67DA6643
:102D6000AC4208D223682000002B21D00834FFF7A2
:102D7000BDFDAC42F6D31C4C1C4DA168C0222800FE
:102D800002F0CCFEA560FEF7BFFF00F057FBFFF797
:102D900013FA174C174B9C4209D2013B1D1BAD087F
:102DA0000135AD002D1908CC9847A542FBD170BD67
:102DB0000834FFF78DFDAC42D4D3DCE700E00040DF
:102DC000BFCDFBFEFE7F3C0000F0004000C0004095
:102DD000180D0020280D0020FFFFFF0100F001402A
:102DE000100D0020180D002000ED00E00000002074
:102DF000280D0020380D0020094A03001068002823
:102E000005D00849C3188B4207D81360704706489D
:102E10000449C31810608B42F7D901204042F5E7FE
:102E2000DC130020000004206C1B002000BEFDE726
:102E30000FB400B5084883B002F0D0FF049B002B0C
:102E400007D005A91800019101F0E6FE034802F041
:102E5000C5FF00BEFDE7C04658960010B0940010B4
:102E600010B50148FFF7E4FF6896001030B50C205C
:102E700083B000F047FBFEF73FFF00280ED0944BD5
:102E8000944A1A605A609A60DA601A615A619A61CB
:102E9000DA611A62904A5A6203B030BD8F4CA06763
:102EA00000F084FB01228E4B1A60636C012BFCD175
:102EB00003228C4B1A60894A936B012BFCD10224AC
:102EC0000121894A89480533009400F0C9FA052395
:102ED000874A01218748009400F0C2FA864B5A685D
:102EE000FF2A02D8802252005A608022784C7D4B03
:102EF00021691201804D1A60002905D0606901F036
:102F000001FF01300138FDD1E0217B4B02201A681E
:102F10001140802252012A43116019684840032160
:102F20000140116004219A681142FCD08022802166
:102F300092012A4309011160802252005A606F4BAE
:102F400023616F4B5968FF2900D85A6003226C48EF
:102F5000634B01211A60020093681942FCD0E025FE
:102F600013681D4080235B0103431D6012684A40C3
:102F70000321114019600221614A93681942FCD073
:102F8000802380219B0103430901196080215D4B4F
:102F90004900516063615C4B5A68FF2A00D8596050
:102FA00080225A4BE1691201574D1A60002905D061
:102FB000606901F0A7FE01300138FDD1E0225249DD
:102FC0000B681A4080235B012B431A608023802208
:102FD0009B012B4312011A6080223E4B52004A6033
:102FE000E3614B4B5968FF2900D85A608022494B56
:102FF000216A1201464D1A60002905D0606901F06E
:1030000081FE01300138FDD1E02241490B681A40B0
:1030100080235B012B431A60802380229B012B437A
:1030200012011A60802380225B004B60294BD20280
:103030002362394B5968914200D25A608022374B43
:10304000616A1201344D1A60002905D0606901F0EF
:1030500059FE01300138FDD1E0222F490B681A409A
:1030600080235B012B431A60802380229B012B432A
:1030700012011A608023DB024B60174B6362284BFE
:103080005A68FF2A02D8802252005A608022254BBB
:10309000A1691201224D1A60002905D0606901F072
:1030A00031FE01300138FDD1E0221D490B681A4084
:1030B00080235B012B431A60802380229B012B43DA
:1030C00012011A6080235B004B600E4BA361E3E6A4
:1030D00044130020006CDC021BB70000008000409D
:1030E0003CB0004030B00040002F685900800240E2
:1030F00000389C1C00C0024030800040001BB7001C
:103100003C800040405973075480004054B0004058
:103110006080004060B000406C8000406CB00040B7
:103120004880004048B00040014B8000C0587047C4
:103130004413002001238340002904D0034A136074
:10314000034A13607047034A1360FBE780E200E024
:1031500000E100E080E100E001238340014A1360C8
:103160007047C04600E200E0024B10309B688000D0
:10317000C058704700ED00E070B50D00EFF3108609
:1031800072B60F4A1368002BFCD0BFF35F8F0D4B54
:1031900010309B6884001B590B4A934203D09D4218
:1031A00001D0FFF75DFE074B9B681D51BFF35F8F9A
:1031B000BFF35F8F0022024B1A6086F3108870BD48
:1031C000240100D000ED00E0CD010010F0B5DE4696
:1031D00057464E464546E0B50C0083B0EFF3108AE3
:1031E00072B65B4A1368002BFCD0BFF35F8F1022CE
:1031F000914681444A46574B96009B689D59564BD1
:1032000098469D4205D0A54216D0544FEB1B2F2B5C
:1032100014D9504B9B689D51BFF35F8FBFF35F8FF5
:1032200000224B4B1A608AF3108803B03CBC9046D6
:103230009946A246AB46F0BD1D00EAE70123834054
:103240009B465A46464B1B681A4000925A46454BCD
:103250001A60BFF35F8FFDF706F80190002803D0D6
:10326000814501D0FFF7FCFD01232A009A4313009A
:103270003D49DB1B5B415943090D93689C4208D1D2
:103280005BE043001B189B00FB189868A04211D01C
:103290001A00062010560028F3DA009B002B05D0F8
:1032A0005A46324B1A602E4B1A60B2E75A462D4BE3
:1032B0001A60AEE706201856002822DB42001118DB
:1032C00089007C188846A1689960E179D971062146
:1032D00061569971A1797F291FD8A488F91A6405CC
:1032E000241544440919E0240905490D2402214309
:1032F000998012181E4B9200BF181A781870BA7174
:10330000CBE7019800280BD1FF30907119489080CD
:10331000174A107811709871BFE7BD210902E7E7DD
:10332000154A1649D21A083A5002400D01439980B5
:10333000134952080A43DA80AFE7062010561300FB
:103340000028BBDA019A002AEAD14546E0E7C046E8
:10335000240100D000ED00E0CD0100102404002085
:1033600000E100E080E100E0AAAA000080E200E0C5
:10337000A518002000BDFFFF5E04002000F0FFFF45
:1033800000F8FFFFF8B5012504000543FCF76BFFCB
:103390000300EFF3108672B621490A68002AFCD0B8
:1033A000BFF35F8F1F4A20001F49801A40414143ED
:1033B000090D1E489B00876849B2FF58AF421CD0D8
:1033C0000623D3568B421CD01223D3568B4222D0D5
:1033D0001E23D3568B4220D02A23D35603208B4260
:1033E00010D0134B1A781970A271BFF35F8F0022AF
:1033F0000B4B1A6086F31088F8BD82680D48D050D8
:10340000EFE7002043001B189B00D218FF239371A5
:10341000094B9380E5E70120F4E70220F2E7C0467C
:10342000240100D024040020AAAA000000ED00E03E
:10343000A5180020CD01001000BDFFFF054B064A76
:103440001360064A136053609360D3601361536145
:10345000936170478080808000E400E004E400E035
:10346000F8B504000C2017001D000E0001F04AFC06
:103470004101091A8B01591AC9000918890138003C
:1034800001F040FC069A2B04120313432268002A21
:1034900021DB184AA21851424A41802149018C4639
:1034A00052420A40144962440A6014490A601449AD
:1034B00017008D68AF43FBD1C021221D8901114344
:1034C00021222660A0600A602268002AFCDAE360FC
:1034D00008230B60F8BD3F2221680A40B242D8D1D0
:1034E000A2681205120D8242D3D1E268002BD0D11E
:1034F000F0E7C0460040FDBF00E0004000F00040A3
:1035000000C000408023024A9B000343D3627047FF
:103510000080054010B5140080221B4BD2051A60B4
:1035200000281AD00123194A1843194BDA61194AA5
:1035300042401A62596298628022134BD2051A6087
:103540001549164A1160E022D2041A60002C07D1F6
:103550008022134B12061A6010BD0D4BD861EBE7A9
:1035600080236201121B9200121912015B049A421D
:1035700000D30C4A0C4B1A60054B5A608022084B52
:10358000D2051A60E8E7C04600B00540D3C007B0D6
:10359000008005402D3FF84FFCFF0100082001404E
:1035A00000A00540FFFFFF00E4170020AA23064A01
:1035B0001B0113602F230549D360054B1960536825
:1035C000002BFCDA7047C0460040024000B0FA0011
:1035D000006002407047C046F8B557464E46DE468A
:1035E0004546E0B51F000A9B05009B460D9B0E005B
:1035F000914692469B0718D10B9B0C9A934214D28A
:1036000013000B9AB8469B1A4B444C460F00060019
:103610001D0022004346013439002020B047AC424F
:10362000F7D1AA4635003E0047460B9B002B38D009
:103630009A441C00D04653461A1B5B46013C185D59
:1036400031003B00A847002CF5D10D9B9B0721D5ED
:1036500043464A469C1A0C9BA3421BD93A009A4601
:103660004F469146E2194B46310020200134A847CD
:103670005445F7D343460C99DB1B0133B94600226E
:10368000994203D343464A1E4A44D21A43469046BF
:103690000133984440463CBC90469946A246AB460E
:1036A000F8BDD046D1E7C046F0B54F464646D646AF
:1036B000C0B584B098460EAB1B78129F99469446CD
:1036C0000D9C109B119EBA0725D4002E69D19C42F7
:1036D00000D3C2E001223A4092461F2C00D9BBE041
:1036E0000C9A551E302201E0202C03D001342A55BB
:1036F000A342F9D85246002A0DD0B4420BD21F2C57
:1037000062D80C9A551E302201E0202C5CD0013486
:103710002A55B442F9D1FA0635D57A055DD4002C84
:1037200057D10F9B102B00D17CE00F9B022B00D1B7
:103730008DE030230C9A012413704B46002B27D0C8
:103740002D230C9A135501340C9B6246009303976A
:10375000434602960194FFF73FFF04B01CBC90461D
:103760009946A246F0BDBB0663D4202CECD00C9B3E
:103770001A19013478231370202CE5D030220C9BC9
:103780001B191A700134202CDED04B46002BD7D1E8
:103790007B0735D43B07D7D520230C9A135501342A
:1037A000D2E7012215003D40AA463A4220D04A46BF
:1037B000002A2AD10C323A4227D19C429DD21F2C9A
:1037C00000D88DE7202E19D92024FA06BCD57A0519
:1037D00003D4A3421BD0A64219D00F9B102BC2D0FA
:1037E000022BC9D1202CAFD00C9B1B19013440E017
:1037F0009C4200D38FE71F2C00D871E720248AE772
:103800002B230C9A135501349EE7013ED5E7631E26
:10381000012C00D185E70F9A102A20D0022A25D04A
:103820001C00ABE7BB060DD478230C9A012413705F
:10383000A4E7202C00D187E758220C9B1B191A7093
:10384000013499E758230C9A0124137096E70C9AD7
:1038500060330124137091E7202400265BE7023CCB
:10386000BA06E9D40C9A12191C0083E70C9A924606
:10387000534462221A707FE710B5002800D110BDB2
:1038800002F05AFAFBE7C0460B0010B5002802D040
:1038900049681B68984710BDF0B5DE465746454657
:1038A0004E46E0B59BB09B46249B0A909846259BCC
:1038B0000B910C924046424619009A4601F0F3FCE7
:1038C000002800D0E8E00122404651467F4B52429A
:1038D00001F0E4FC002800D0DEE001224046514621
:1038E0007B4B524201F0C4FC002800D0D4E00022FF
:1038F00000234046514601F0BBFC002800D0CAE13D
:103900005346C14609938023289ADB001A400E9241
:10391000289A1A4201D1062326934C46099B234339
:1039200000D0D9E0289B002600271B0500D4AEE17B
:1039300000230D93269B19000D9B994200DCB0E1FA
:10394000C81A431E26938023289ADB001A430023BB
:10395000002528920D93279B0024AB4200D95C1BC5
:103960000223289A1A400E92289A134203D06B42DF
:103970006B415B421C400D9B002B07D048460999C8
:1039800032003B0001F013FC814609910022002324
:103990004046514601F06CFC002805D0802000060E
:1039A0008446099961440991289A4A4B0A9E13401A
:1039B0004A460493269B0B990293099B0394009219
:1039C000019330005B460C9A884600F0A1F9040090
:1039D000002D72D0289B220098061F23C017984301
:1039E00041465B466530B0470D9B671CDA179C1853
:1039F000DB0F98466B1E99460025544001E0202DB0
:103A000013D00AAA94461F23200063440A210135DB
:103A10005E1901F077F93031317020000A2101F090
:103A200071F926000400092EE9D8052306934B46B8
:103A30000593002304930A33039343463A000A9EF6
:103A40000B9F029312AB009339005B463000019547
:103A5000FFF72AFE0E9B0400002B2ED00C9B279A0A
:103A6000C51AAA4229D93C00814698461700434608
:103A700021005A1920205B460135B047AF42F6D8E5
:103A80004C460C992798631A01330022984200D3C0
:103A90000AE10134141910E0289B42460493279B45
:103AA0000B990393269B0A98029353460092019325
:103AB0005B460C9A00F02CF9040020001BB03CBCC3
:103AC00090469946A246AB46F0BDC046FFFFEF7F49
:103AD000FFFFEFFFFFF7FFFF764B099D9C46680055
:103AE000400D604401F0F2FB734A744B01F07DFB22
:103AF000734A744B01F052FB2B03734A1B0B1A439E
:103B000006000F00714B110048460022099501F094
:103B10003CFB6F4A6F4B01F068FB02000B0030006A
:103B2000390001F03BFB01F0E9FB0D9001F0CEFB09
:103B3000694A6A4B04000D0001F057FB0022684BF4
:103B400001F02CFB01F0DAFB664A0600664B200010
:103B5000290001F04AFB040030000D000F9601F02F
:103B6000B5FB624A624B01F040FB02000B002000F3
:103B7000290001F00AFB02000B0006000F0001F013
:103B800034FB320004000D003B003000390001F02E
:103B900005FB002210901191564B2000290001F0E6
:103BA00006FB0022544B01F0F9FA02000B00200042
:103BB000290001F0FCFA0022504B01F0EFFA02005C
:103BC0000B002000290001F0F2FA0D0080213200E4
:103BD0003B000400C905002001F0D7FA02000B00E9
:103BE0002000290001F0DAFA02000B001098119968
:103BF00001F0DDFA0022344B01F0D0FA404A0F9B6D
:103C00009446634400221B0501F0EFFA06000F0002
:103C100002000B004846099901F02AFB00280AD04F
:103C20000D9B3000013B39000D930022324B01F017
:103C3000BEFA06000F00C6250D99330063318D4290
:103C4000AD4128996D420435090500D483E63B4314
:103C500000D16FE6099C484621002A4A2A4B01F010
:103C600015FB002808D0002248462100274B01F010
:103C7000FFFA002800D05DE6269B002B00D16AE603
:103C80000E9B5A1E9341269AD31A269363E600236D
:103C900004250D935FE680231B065344C146099318
:103CA00031E6002326934EE60A008446013A624438
:103CB000121BEEE601FCFFFFFB799F501344D33F3C
:103CC000B3C8608B288AC63F0000F03F0000F83F71
:103CD00061436F63A787D23F71A379094F930A406D
:103CE0000000E03F1655B5BBB16B0240EF39FAFE5C
:103CF000422EE63F00002C40000024400000184007
:103D0000FF0300002D431CEBE2361A3F80842E4156
:103D1000F0B54E46DE4657464546E0B597B0994663
:103D2000209E219F229B8346984607910C923B0040
:103D300032003000390001F0B6FA002800D0C1E1AD
:103D4000012230003900CA4B524201F091FA00289A
:103D500000D0E0E0012230003900C64B524201F0B1
:103D60009DFA002800D0B6E0002230003900C24B96
:103D700001F094FA002800D098E0002230003900C9
:103D8000BE4B01F075FA002800D08FE0002200231E
:103D90003000390001F06CFA002800D0B0E00023B8
:103DA0000D93249B5B0501D40623984608AB9C46E3
:103DB0001722002430234146624404E001341355A5
:103DC0000139202C01D00929F8D888463000390063
:103DD00001F094FA4346DA00A94B05009B181A68D3
:103DE0005B680892099301F071FA02000B00300041
:103DF000390001F0CAF9089A099B01F0F6F90A9016
:103E00000B9101F09FFA824601F05CFA02000B0070
:103E10000A980B9901F0B9F900229A4B0A900B917C
:103E200001F03CFA002800D1C0E001239C46E244A6
:103E3000504601F047FA02000B000898099901F07A
:103E40001DFA002802D000239A4601354346002B74
:103E500069D008AB17269C4608956644554614E081
:103E600001235B4243440A2128009A4600F04AFF9E
:103E7000013430313719397028000A2100F042FF2F
:103E8000092D00D8D5E0D0460500202CE8D1032329
:103E9000249A1340012B00D100E10EAB9846249BDD
:103EA00001940393239B029343461EE0249B5846B0
:103EB0000493239B00960197039343460C9A029325
:103EC00007994B46FFF7E8FC17B03CBC9046994673
:103ED000A246AB46F0BD249B5B070ED403226A4B7F
:103EE00024990192039123990291009358464B46DD
:103EF0000C9A0799FFF770FBE6E70422634BEFE7A4
:103F00003B0032000020002101F03FF901230600B0
:103F10000F000D9345E7249B0393239B02930423F7
:103F200001935B4BE1E7280001F0D0F902000B00A0
:103F30003000390001F029F9524B002206000F0031
:103F400001F096F90EAB984600280AD10022300005
:103F500039004C4B01F0A2F9002802D1EB0700D543
:103F60000135202C32D008AA944617232800634438
:103F70000A2101341E1900F09DFE303128003170F5
:103F80000A2100F097FE051EEBD10323249A13406B
:103F9000012B00D191E01F2C00D980E70D9B002B55
:103FA0003BD02D2342461355013478E700220A986E
:103FB0000B99344B01F05CF9002800D046E75346DA
:103FC000002B67D101239C46E2443FE70323249A58
:103FD0001340012B00D062E7239B002B00D15EE74A
:103FE0000D9B002B03D1249A0C33134202D0239B48
:103FF000013B2393239B9C42CDD208AB9C461722C6
:10400000302362441F2C06D82399013413558C4267
:10401000C1D0202CF8D1202441E7249B5B0721D478
:10402000249B1B0700D43AE7202342461355013452
:1040300035E75746089D202C37D0220030214046D6
:10404000002F08D00132B154202A43D0D3431B198A
:104050001B18002BF6D10EAB98462E234146541C5C
:104060008B547EE72B2342461355013417E7C04695
:10407000FFFFEFFFFFFFEF7F65CDCD4165CDCDC1E8
:10408000709800100000E03F7496001078960010C1
:1040900084960010DB0700D4D8E693E7239B002B1F
:1040A00000D1FAE60EAB98469AE70323249A134010
:1040B000012B00D0F1E60EAB9846239B002B00D1DC
:1040C00069E78DE7249B0393239B029303230193CA
:1040D000064B0AE70323249A20241340012B00D027
:1040E000DBE6239B2024002BDCD1D6E68096001053
:1040F000F0B5DE464E4657464546E0B59FB01C003B
:10410000289B93460993CF4ACF4B894608901A6063
:10411000002900D116E2002320789A46002800D119
:1041200018E226001D004C460AE02A006F1C5B4680
:10413000089D2100A8473D000136307800287AD03C
:104140002528F2D110239A46083B9946043B98460D
:10415000023B00219C46721C107816000300203B95
:10416000DBB2102B03D8B94F9B00FB589F460300CE
:10417000303B092B3CD900230A932A2800D171E057
:10418000002398462E2847D00300683BDBB2122B51
:104190001FD8AF4A9B00D3589F46012301321943D1
:1041A000DAE7634601321943D6E743460132194341
:1041B000D2E7534601321943CEE74B460132194349
:1041C000CAE770786C2800D1BFE280235B001943F6
:1041D00001360300253BDBB2532BA6D89D4A9B003A
:1041E000D3589F4680235B00707819430136F0E76F
:1041F00000270300B800C01901364000C01833780A
:1042000030381A00303A0700092AF3D90A9018000A
:10421000002398462E28B7D180237078DB001943FD
:104220000300303B721C092B00D895E12A2800D1ED
:10423000A6E11600A8E7A146AA462C00D34503D85C
:1042400001235B425B449A465B4652464946002046
:10425000089DA84720001FB03CBC90469946A24646
:10426000AB46F0BD099B40CB0A96002E03DB50788D
:104270000993561C84E72838014370420A90099339
:104280005078561C7CE7782800D1D4E1582800D11A
:1042900068E26F2800D152E3622800D1D8E11023F0
:1042A0000A009A430B92692801D000F0A2FC0A236D
:1042B0000C934B0500D4D5E101230B9A9A430B9242
:1042C000692800D1CEE1642800D1CBE10B9A80238C
:1042D00011009B0019408A461A4200D032E3802325
:1042E00011005B00194089461A4201D000F002FC1F
:1042F00013005B0600D510E30B9B1B0601D400F0F6
:104300006EFC099B04CB1204120C9246099353468F
:10431000002B00D064E30B9A1033110099430B91EA
:10432000520500D45CE3002399460B9B06930A9B3D
:104330000593434604930C9B03930023DEE27078BD
:10434000682800D107E280230136194341E7802322
:104350009B007078194301363BE7462800D174E191
:104360000722099B0491073393430A9A1900039289
:10437000424602920CC908980092019309912A00C2
:104380005B462100FFF7C4FC01360500D5E6099B1A
:104390001A0008CA9146002B00D105E121221143E1
:1043A0008A460EA884461F216144099500220F27E2
:1043B000A4460D0002E0202A0CD00B003C001C405B
:1043C00020003730092C00D807380132A8541909C9
:1043D0000F2BF0D86446099DF0E08B0700D4D1E1A3
:1043E000099B2A0099466B1C98464B4601CB21003D
:1043F0009946089F5B46C0B2B8470A9B9C466544F5
:10440000012B00D890E2B2465E464746A846089D7A
:104410003A003300013721002020A8474745F7D153
:10442000B3464B4656463D000993013685E62A00C1
:104430006F1C5B46089D21002520A84701363D00E2
:104440007BE6C046F1400010E01700208C9600107B
:10445000D09600101C970010099B04CB9946434648
:104460000992002B00D097E013789C46002B00D1D6
:10447000B3E302235B425A1C099B924618000A9F31
:104480000B92504402E0834200D169E15A78013333
:10449000002AF8D1099A0A979B1A0B9380230A00E5
:1044A000DB001A400C92194204D00B9B434501D902
:1044B00043460B9302231A000A400D920B4200D18F
:1044C00084E16046002823D00C9B002B00D124E11E
:1044D000A844C246099B57465B1B9846089BB246B8
:1044E0002A0026005C469B4609E023003100551C4B
:1044F000D8474346585D002800D13FE12A00974243
:10450000F3D1A3463D00340056460D9B002B69D0E5
:104510000B9B0A99A846994264D98C466544ED1ACA
:10452000089B47469A46B04626005C463A00230060
:10453000013731002020D047AF42F7D1A3463400E5
:1045400046464FE0D24B2078089300239A46002835
:1045500000D0E6E5002471E6434606000A9F980075
:10456000C01801324000801916780300300030383E
:10457000303B0928F3D93000984616000A9703E625
:10458000099B023604CB9046D2434046D2171040D6
:10459000804609933078F7E513789C46002B00D1CC
:1045A0001AE34346013B66E71022080090431132AC
:1045B000104382460022490500D4F2E65346069392
:1045C0000823059343460493102303930023029387
:1045D00016AB019200932A005B4621000898FFF772
:1045E00063F805004B4601360993A6E52023020037
:1045F0009A43472A04D180231B011943022398437D
:10460000452801D1202319430722099B0491073330
:1046100093430A9A19000392424602920CC90898E1
:104620000092019309912A005B462100FFF734F9BB
:104630000136050081E510230C930C230A009A43F0
:104640000B924B0500D43BE636E62023194387E660
:1046500002230C930B910B996428EED10B9B5B0505
:1046600000D529E60B9A802311009B0019408A4649
:104670001A4200D0CEE0802311005B001940894629
:104680001A4200D0DBE113005B0600D51DE10B9B55
:1046900009991B0600D499E208C91BB2D8171A1849
:1046A000424092B209919246DA0F1292002B09D140
:1046B000802310220B99DB000B4091430B91002BC0
:1046C00000D012E10B9A6123920600D541230EA976
:1046D0001F228C46DBB262440A3B57461395A24622
:1046E0004D460C9CB1460D9316000AE03033DBB208
:1046F00001357355A74200D21CE1202D00D119E1EC
:1047000007002100380000F0FDFACBB20929EDD9ED
:104710000D9A94466344DBB2EAE7099B5F465B1B54
:1047200098460A9BB3469A462600089C2A003B00FE
:104730003100A04743460135585D0028F6D1534665
:1047400034000A935E46BB46DFE6C0239B00B07888
:10475000194302363DE5C023B0781943023638E5E7
:104760000A979BE60C230A009A4314331A4310233A
:104770000B920C934B0500D4A8E59DE5A3463400AD
:104780005646C2E60A9A012A00D82EE26B1E9F18EE
:10479000089BB046994626005C462A002300013556
:1047A00031002020C847BD42F7D1A3463400464619
:1047B000099B3A0001CB210098467D1C5B46089F6F
:1047C000C0B2B847434601360993B6E40B9A0A983B
:1047D000531C904200D80AE243199B1A1F00089B01
:1047E000B24626005C469B462A0023000135310074
:1047F0002020D847BD42F7D10A9BA34601330B9333
:10480000099B34001B7856469C466046002800D021
:104810005AE6E7E60722099B0733934301329446A1
:104820009C4462465F6809921A68FB1710931193C3
:1048300010981199030053400E930B007B400F9387
:1048400094460E9A0F9B121A8B410E920F93FB0FF8
:104850006246129300233A439A463DD00B9A612355
:10486000920600D541230022DBB20EA90A3B8C46FA
:1048700091460D9343461F326244139515964D465B
:104880000E9E0F9FA14690460C9C14930FE0C046CD
:10489000D53500103032D2B2434601355A55BA45AB
:1048A00000D17CE1202D00D17CE106000F00220028
:1048B00000233000390000F067FAD2B2092AE9D9A2
:1048C0000D9B9C466244D2B2E6E7FF23099904C9D6
:1048D00013401A000991E6E60B9A10331100994330
:1048E0000B915205BAD5002399460B9B06930A9B60
:1048F0000593434604930C9B0393129B02934B46F0
:10490000019316AB2A00009321005B460898FEF73E
:10491000CBFE01360500FFF710FCFF22099B02CBFE
:1049200011408A460993F2E44B4645460993013605
:10493000FFF703FC4E465446A946139DD5E70823CE
:104940000C9387E60722099B073393430132944671
:104950009C44624609921A685B6810009A461300EC
:104960005246134307D10B9A1033110099430B9110
:10497000520500D5D7E40B9A6123920600D5412356
:104980000022DBB20EA90A3B8C4691460D934346AA
:104990001F32624457461295A2464D460400B14666
:1049A00090460C9E13930DE03032D2B2434601354F
:1049B0005A550023BB4200D1FDE0202D00D1FDE07F
:1049C00004000F00320000232000390000F0DCF961
:1049D000D2B2092AE8D90D9B9C466244D2B2E5E7DF
:1049E0000B9A6123920600D54123DBB20EA90A3B44
:1049F0001F228C460D9323006244544612951700E3
:104A00004D469A46B1460C9E08E03033DBB2013584
:104A10007B55B4420ED3202D0CD004003100200071
:104A200000F070F9CBB20929EFD90D9A944663448E
:104A3000DBB2ECE74E465446A946129D75E4099B4D
:104A40001A0008CAD91713925A184A409146DA0F29
:104A50001292002B08D1802310220B99DB000B400F
:104A600091430B91002B2BD10B9A6123920600D519
:104A700041230EAA1F279446DBB20A3B0D956744DB
:104A800055460993A2464C46B1460C9E08E0303389
:104A9000DBB201357B55B4420ED3202D0CD004007F
:104AA0003100200000F02EF9CBB20929EFD9099A84
:104AB00094466344DBB2ECE74E465446AA460D9D4D
:104AC0000B9B2A0006930A9B2100059343460493FF
:104AD0000C9B08980393129B013602935346019353
:104AE00016AB00935B46FEF7DFFD139B05000993B1
:104AF000FFF723FB099B04CB91461293002A08D1B0
:104B0000802310220B99DB000B4091430B91002B6B
:104B10002BD10B9A6123920600D541230EAA1F27A1
:104B20009446DBB20A3B0D95674455460993A2466D
:104B30004C46B1460C9E08E03033DBB201357B5564
:104B4000B4420ED3202D0CD004003100200000F020
:104B5000D9F8CBB20929EFD9099A94466344DBB25C
:104B6000ECE74E465446AA460D9D0B9B2A00069341
:104B70000A9B21000593434604930C9B08980393DA
:104B8000002302935346019316AB00935B46FEF756
:104B90008BFD129B050009930136FFF7CEFAB44254
:104BA00000D87FE6149B4C460E960F97A946984670
:104BB000159E139D99E6A64200D8FEE6139B4E462D
:104BC0009846A9465446129DFFF7AFFB08C9D8176F
:104BD0001A184240099166E500230B935EE4099B95
:104BE00004CB92460993FFF792FB2F00E0E50B936D
:104BF0000BE6063B0C932EE500B585B00391012131
:104C000002900093034813004A4202A9FFF770FA8A
:104C100005B000BD8938001010B5094A03001468BA
:104C200084B0002C08D0012200910648524203A90A
:104C3000A047012004B010BD01F0D0F80020F9E732
:104C4000E01700207938001001480421014B184773
:104C500070040020794C0010142310B5010018884E
:104C600004331B88984710BD162310B5010018881F
:104C700002331B88984710BDF0B5C64600B5002921
:104C800016D01423040001259846182789004618D9
:104C90004346216818883B88984701C4431E9841C1
:104CA00040420540A642F3D1280004BC9046F0BD26
:104CB0000125F9E7124A936F9B0815D29066D166D9
:104CC000002905D0FFE7FFE7FFE7516F106F70473E
:104CD00004B580210906C2175140002800D0C843FE
:104CE00004F076FB002104BDF0B5146E556E576FCD
:104CF000166FFFF7E3FF1466556657671667F0BD3A
:104D0000000000D0114A936F9B0813D210665166C1
:104D1000002905D0FFE7FFE7FFE7516F106F7047ED
:104D200004B5002801D00020C04304F051FB00214D
:104D300004BDC046F0B5146E556E576F166FFFF781
:104D4000E5FF1466556657671667F0BD000000D092
:104D500094464E4A926F9208624601D230E0C046B5
:104D6000F0B54A4EB56F6D08FCD3346E756E776F33
:104D7000366F00F025F89446444A14665566576726
:104D800016676246F0BDC0469446404A926F92084C
:104D9000624601D258E0C046F0B53C4EB56F6D0892
:104DA000FCD3346E756E776F366F00F04DF8944615
:104DB000364A14665566576716676246F0BDC046A8
:104DC000002B24DB11D000293EDA00B5C943404254
:104DD00000D1013100F038F8C943404200D101311F
:104DE000DB43524200D1013300BD002AEBD1002841
:104DF00001D1002905D00020C90FC90701D1C04346
:104E0000410800B504F0DCFA0022002300BD00B523
:104E100000290ADBDB43524200D1013300F014F8D1
:104E2000C943404200D1013100BDC943404200D1D5
:104E30000131DB43524200D1013300F005F8DB437E
:104E4000524200D1013300BD002923D1002B18D1DB
:104E5000002A0CD0BC460D4F38667A66002100232C
:104E6000FFE7FFE7FFE77A6F386F67467047002874
:104E700001D00748010000B504F0A2FA0022002387
:104E800000BD02000B00002000217047000000D090
:104E9000FFFFFFFF002B00D0BFE0130C28D1002A3A
:104EA000E7D080B4114F39667A66FFE7FFE730B488
:104EB000040C7B6F396F1B0423433B667A66FFE764
:104EC000FFE7FFE7C04684B27B6F3D6F1B042343BF
:104ED0003B667A66FFE7FFE7C04600232C042D0CF3
:104EE0007A6F386F00196941B0BC7047000000D07C
:104EF000F0B594460025140E01D112020835140FA6
:104F000001D112010435940F01D192000235D40F62
:104F100001D152000135D40B0134254F7C66254C5C
:104F20003C660E0C93B2FFE7FFE7FFE73C6F66437A
:104F3000360C7703BE467343DF0B5B04C01AB941DE
:104F4000130C7343DB18C91ACE086643360CB644FB
:104F500093B273431F0F1B01C01AB941130C734363
:104F60001F0B1B05C01AB941860D8F023E436643D5
:104F7000360C092D24DB520A7243801A7703460A45
:104F80006643360C16235B1BDE40DF40BF196446C8
:104F90006643821B7046043506330100D940A840A1
:104FA000C01900D30131A24206D20023F0BD000097
:104FB000000000D0FFFFFFFF121B0130F3D3F1E729
:104FC00009277F1BFE406446A2B27243801A00D2BA
:104FD0000139220C7243130C1204821A99410B00FE
:104FE0007046043513370100F940A840801900D3FA
:104FF0000131002B02D1A2420AD2F0BD013000D310
:105000000131121BFAD2013BF8D1A24200D2F0BD0D
:10501000013000D30131121BF7E7F0B51C0C00D0B2
:1050200080E00CB400251C0A04D11B02160E334389
:10503000120208351C0B04D11B01160F3343120159
:1050400004359C0B04D19B00960F3343920002352C
:10505000DC0B02D192185B4101351C0097186441AA
:105060000134464F7C66464C3C660E0CFFE7FFE77A
:10507000FFE7C0463C6F6643360C7703BE4697B2E7
:105080007743C01B00D20139C01B00D201399FB247
:105090007743C91BC91B170C77437E04FF0B801B8A
:1050A000B941CE086643360C0C2D33DBB644120BE7
:1050B0001F053A431B0B97B27743C01B00D201393F
:1050C0009FB27743C91B170C77433E043F0C801BEC
:1050D000B941860D8F023E43664329277F1BFE4060
:1050E0000C3D7746AF40BF1930BCA2B2ABB27243A1
:1050F0007343801A9941220C7243130C1204801AD4
:10510000994102000B000137001BA941F9D2781E1A
:105110000021F0BD0C277F1BFE4077467F0BAF4080
:10512000FF19E0E700245D1C07D0144F7D66396647
:10513000FFE7FFE7FFE7FFE73C6F95B29EB26543ED
:105140006643401BB141150C1E0C65436643360493
:105150002F0C3E432D04401BB141994204D2020062
:105160000B0020000021F0BD01D19042F7D3801A3E
:10517000994101349942F2D3F6E70000000000D0D3
:10518000FFFFFFFF48404140484018B41B4B5B689D
:10519000FC46019308BD04DF6754001018B4174B98
:1051A0001B68FC46019308BD00DF71540010944653
:1051B000134A926F920809D2624618B40F4BDB680B
:1051C000FC46019308BD0CDF295700100C4AF0B5CE
:1051D000146E556E576F166F6246FFF7EEFF084A62
:1051E0001466556657671667F0BD18B4034B9B6885
:1051F000FC46019308BD08DFCD550010A81800201B
:10520000000000D0FFB550404240504059404B4054
:10521000594000E0FFB5154F4C00640D03D0BC426F
:1052200004D10C0314D80020090D09055C00640D9D
:1052300003D0BC4204D11C030AD800221B0D1B055D
:1052400001264B4009D44B4003D58B4200D182420A
:10525000FFBD9942FCD19042FFBD0B43DB180343D5
:105260001343F5D0C9434918FFBD0000FF070000F4
:1052700000B5FFF7CFFF804100BDC04600B5FFF786
:10528000C9FF01D9002000BD012000BD00B5FFF716
:10529000B9FF01D9002000BD012000BD00B5FFF716
:1052A000B1FF804100BD012040054A00121804D81A
:1052B0005A00121801D800207047012070470020C2
:1052C000704700000021002805D17047C1174840F1
:1052D000401AFAD0C90713B5064B1B6898470CBC97
:1052E000441CA2401005120B0349091B0905194370
:1052F000114310BD701800201F04000010B54C00B1
:10530000620D8023D218DB00D21A5B057E2A10DDE5
:105310009E3A13DACC170903490819435242D14087
:10532000640001341532202A05DAD0400843604376
:1053300010BD002010BD0846604310BDC80FC01846
:10534000013810BD18B4044B5B6AFC46019308BDDC
:1053500024DFD95800100000A818002018B4044B0E
:10536000DB6FFC46019308BD7CDF5959001000003B
:10537000A8180020132370B51D78012D15D010DD5D
:105380002748FFF771FC274C01008022200000F025
:10539000C5FB022D06D02448FFF75EFC234B1860A6
:1053A00070BD204C224AA264F5E72E001D4C204A15
:1053B000A3085B421E401D422FD0330022602020F4
:1053C000B1006118801B0A604A608A60CA600A6185
:1053D0004A618A61CA610A624A628A62CA620A636F
:1053E0004A638A63CA630A644A648A64CA640A654F
:1053F0004A658A65CA650A664A668A66CA660A672F
:105400004A674008102803D18A67CA67A264C2E7C6
:105410001E339B00E250A264BDE70023CFE7C046E5
:1054200053440000A81800204C33000070180020DE
:105430003554001007B5604601880A0A0230DF2A99
:10544000FAD1C9B2820804D302884088000410430C
:1054500000E00068014A5050039007BDA8180020E2
:105460000FB403BC0CBCF0B50124E407634000E0BA
:10547000F0B50C0DCF0F661E3605891B640503D3EE
:10548000C943404200D30131640D03D0661CF60AC3
:1054900007D0E41B00207F00791C89078912803C1B
:1054A00024031D0DDF0F6E1E36059B1B6D0503D3F8
:1054B000DB43524200D301336D0D03D06E1CF60A5C
:1054C00007D0ED1B00227F007B1C9B079B12803DB9
:1054D0002D032F1B661B58D4A446202E46DA2037F6
:1054E0001400BC401D00BD40F24033412A438018E7
:1054F0005941CB0F05D0C943C043002264425041FB
:10550000514162464D0D28D10D0D07D100281FD005
:10551000241940414941013A0D0DF9D0640006D3E8
:10552000013000D30131002C01D140084000013A84
:105530000BD4941CE40A04D112051144DB0719446E
:10554000F0BDD907204B194300E0D9070020F0BD7A
:105550000029DDD1002CDBD1F0BD0132C6074008A7
:10556000CD0728434908002EE1D0D9E73C2E29DA9F
:10557000203E40371400BC4000D00124F2401443C8
:105580001A00BB401C43D317ACE7AC46202F08DA07
:1055900020360400B4400D00B540F840394128439E
:1055A000A5E73C2F0CDA203F40360400B44000D081
:1055B0000124F84004430800B1400C43C117EAE756
:1055C00010001900002494E70000F07FF0B50C0DE6
:1055D000661E3605891BE60A6405640D02D0651C4B
:1055E000ED0A04D0002001210905803C2403A446D3
:1055F0001C0D671E3F05DB1BE70A6405640D02D026
:10560000651CED0A04D0002201231B05803C240305
:105610007740644497B484B296B27443070C7E43D7
:10562000150C6F4380B26843361802D30120000482
:105630003F183004350C00197D41844688B29AB277
:1056400050430C0C62431F0C7C438EB27E43921974
:1056500002D301263604A4191604170C3618674124
:1056600001BC81B29AB25143040C62431B0C5C43EF
:1056700080B25843121802D30120000424181004E9
:10568000130C401863412D185E410020474106BCB1
:1056900088B293B258430C0C6343120C544389B242
:1056A00051435B1802D301210904641819041A0C30
:1056B000091862416D1856410020474118BCF90293
:1056C000720D1143F0026A0D1043ED020A0D03D171
:1056D0006D1940414941013B124E9B1B7600B3427C
:1056E0000ED26D0007D30130002671416646354366
:1056F00001D1400840001B05C918E4072144F0BD52
:105700000BDA013306D1013004D101314F0D01D044
:105710004908F2E7E1070020F0BD0136310500201D
:10572000EBE70000FF030000F0B51C0D671E3F050E
:10573000DB1BE70A6405640D02D0661CF60A04D080
:10574000002201231B05803C2403D0252D060026C2
:10575000F6432E661E096E66CE0FF619B446490052
:105760004F0D02D07E1CF60A03D000200021403FDE
:105770003F033E1BB600B444013F7F05C91B4908E7
:105780002E6F013676089C02950D25437543ED1367
:105790007543AD1301356D10F603761B0CB4CC02C6
:1057A000450D2C43A2B2B3B25A43270C7B43350CB0
:1057B0006F43A4B26C431B1902D3012424043F1984
:1057C0001C041D0CA4187D4124196D41009A91B24E
:1057D000ACB26143170C7C432B0C5F4392B25A432B
:1057E000A41802D301221204BF182204230C521859
:1057F0007B41019C6C431B19520ED9010A434401A1
:10580000A01A81B2B2B2514303145A43360C734307
:1058100087B27743D617D21900277E4136049B19E9
:105820001704160C7F185E417316ED18F30100265D
:1058300080337541A90F06D16400690AE8055B0A47
:10584000184309D22FE00422944480337541A90AF9
:10585000A8059B0A184326D3404149412404009AD5
:10586000019B0D005543641B4343E41A95B286B275
:105870007543170C7E43030C5F4392B25A43B6182C
:1058800002D301221204BF183204330C52197B4197
:1058900052429C41002C02D4002201305141400868
:1058A000CA071043490802B06246D7079210084B56
:1058B000D218084B9A4203D212058918C919F0BDB3
:1058C0000020002A01DC3900F0BD01331905F5E79D
:1058D000FD030000FE070000002200B5203200F0AA
:1058E00004F8080000BD000000220B150AD410B512
:1058F000944600F05FF81414013400DA0021CB174D
:10590000144C20470020002170476244343A0CD4E4
:105910000C2A07DA04009140904052422032D440D1
:10592000214310BDD843D94310BD203207D40C46C3
:105930009440524220321141D040204310BD080013
:10594000C917203203D452422032104110BD180032
:10595000190010BD0B5900104A00520D144BD21AF9
:1059600013DDFF2A1EDAD205CB0FDB071A43C30073
:10597000400F0903490A084310435B0001D301D0DB
:10598000013070474308FBD2704702D0C80FC007F0
:1059900070470A0312130132F8D1420F072AF5D1DA
:1059A000012200E0FF22C80F00028018C0057047E6
:1059B000800300000A0DCC0F531E1B05C91A5205A7
:1059C00003D3C943404200D30131520D03D0531CCD
:1059D000DB0A07D0121B00206400611C89078912B2
:1059E000803A1203014BD21A70470000FF030000F7
:1059F00051434343C9188C46110C83B24B4310B436
:105A0000040C614392B280B2504362431C041B0CED
:105A1000001910BC59411304120CC01851416144C3
:105A200070470000034BDB6FFC4618477CDFC95A08
:105A300000100000A8190020132310B512481C788C
:105A4000FFF712F90100012C0AD003DD80220F4874
:105A500000F064F80E48FFF7FFF80E4B186010BD19
:105A60000A4C5422200000F059F80B4B6365A365E3
:105A7000E36523666366A366E36623676367A367DC
:105A8000E3672362E361E5E753460000A8190020BD
:105A90004C330000701800209D5A001007B5604676
:105AA00001880A0A0230DF2AFAD1C9B2820804D377
:105AB000028840880004104300E00068014A50500A
:105AC000039007BDA8190020C30FDB0741000A0E91
:105AD00007D0FF2A08D00909054A89181943400749
