:020000041000EA
:1000000000B5324B212058609868022188439860DF
:10001000D860186158612E4B002199600221596106
:100020000121F02299502B49196001219960352056
:1000300000F044F80222904214D00621196600F024
:1000400034F8196E01211966002018661A6600F04E
:100050002CF8196E196E196E052000F02FF8012189
:100060000842F9D1002199601B49196000215960AB
:100070001A491B48016001219960EB211966A021F2
:10008000196600F012F800219960164914480160C1
:100090000121996001BC002800D000471248134993
:1000A000086003C880F30888084703B5996A0420EC
:1000B0000142FBD001200142F8D103BD02B5186610
:1000C0001866FFF7F2FF186E186E02BD00000240BE
:1000D000000000180000070000035F00212200005C
:1000E000F4000018222000A00001001008ED00E03C
:1000F00000000000000000000000000074B24E7A12
:1001000000200420F7010010C3010010C5010010F9
:10011000C1010010C1010010C1010010C101001097
:10012000C1010010C1010010C1010010C701001081
:10013000C1010010C1010010C9010010CB01001065
:10014000CD010010CD010010CD010010CD01001037
:10015000CD010010CD010010CD010010CD01001027
:10016000CD010010CD010010CD010010CD01001017
:10017000CD010010CD010010CD010010CD01001007
:10018000CD010010CD010010CD010010CD010010F7
:10019000CD010010CD010010CD010010CD010010E7
:1001A000CD010010CD010010CD010010CD010010D7
:1001B000CD010010CD010010CD010010CD010010C7
:1001C00000BE00BE00BE00BE00BE00BE00F04BF888
:1001D000103800BEF2EB887110A6001030A6001097
:1001E0003402001090A31AE700202149086006C8D5
:1001F00081F3088810471F48006800282FD10DA4FC
:100200000ECC002902D000F012F8F9E71A491B4A77
:10021000002000E001C19142FCD1194988471949E9
:1002200088471949884700BEFDE701C901C29A42C3
:10023000FBD3704730A60010C0000020680D0020DE
:10024000D8B200100000042000000420D8B2001032
:1002500000100420001004200000000070470B482C
:1002600005F00CF90047EFF30580C0B270470000BD
:1002700008ED00E0000000D0680D0020A41B002065
:100280002D350010D50800105136001057560000CB
:1002900006005250ABB36053C8A300100600525082
:1002A000861C0302D8A30010060052505422A29DBF
:1002B000ECA3001005005250DE65F468D8B20010BF
:1002C000F8B5C0460448054B10B5834203D0044B33
:1002D000002B00D0984710BD680D0020680D00204D
:1002E0000000000006480749091A8B10C90FC918F9
:1002F00010B5491003D0044B002B00D0984710BD17
:10030000680D0020680D00200000000010B5074CAB
:100310002378002B09D1FFF7D5FF054B002B02D026
:10032000044800E000BF0123237010BD700E0020C0
:1003300000000000089C0010054B10B5002B03D0F6
:100340000449054800E000BFFFF7CCFF10BDC046E0
:1003500000000000740E0020089C001010B5354805
:1003600082B006F0F1F86B466A466946324C0733B4
:1003700020000632053101F02FFB6B465B79002B24
:100380001ED16B469B792D49002B1ED16B46DB7924
:100390002A4A002B1ED1294B294806F07DF96B46CD
:1003A0009B79002B1ED1274B1B78012B21D9022BC7
:1003B00028D0042B33D00022234B1A7002B010BD7A
:1003C0006B469B792149002BE0D06B46DB791F4AB5
:1003D000002BE0D01D4B1A4806F05EF96B469B7966
:1003E000002BE0D0200000F0E1FB164B1B78012B26
:1003F000DDD86B46DB79002B0DD11549154806F089
:100400004BF9D8E76B465B79002B06D110491248AF
:1004100006F042F9CFE71149F0E71049F7E76B46DC
:100420009B79002B04D10A490D4806F035F9C2E743
:100430000A49F9E7289C001034180020109C00108D
:10044000449C0010DB180020DE180020089C0010DF
:10045000209C0010749C0010949C0010189C0010AC
:10046000B49C0010F0B5C64600B584B001AC2200C3
:100470003B4B23CB23C202E00A3002F029FC0020D0
:1004800008F032F80028F7D0364D280000F0B4FE0E
:10049000071E61D0344806F057F8344806F054F887
:1004A00006F00AF9C6B2313E71427141CBB29846AC
:1004B00019002F4806F0F0F82E4B012204211620D7
:1004C00001F060FF01220121280001F021FE280037
:1004D00001F0A8FC280001F051FD434659004144B9
:1004E00049002800611801F0B5FA701E86417200BB
:1004F0009219520001212800A21801F083FB1E4B23
:100500001B78002B24D1012301220121280001F0B6
:10051000E1F91A4C042322000121280001F0E2FD38
:1005200004230121621D280001F0DCFD22000423C8
:10053000012128000A3201F0D5FD280000F08CFED0
:100540000F4806F001F8380004B004BC9046F0BD36
:10055000280000F0EDFFF3E70A4805F0F5FFF2E7A9
:10056000D4A0001034180020F89C0010209D00102A
:10057000589D00105D030010DC180020F8030020D7
:100580006C9D0010D49C0010F0B557464546DE46E1
:100590004E46E0B52B4D83B000AF280001F0CEF9F8
:1005A000002834D0284BEB461B78002B37D10F3373
:1005B0003B6001339946013B7B600A3B05269A4626
:1005C0004B466A460733DB08DB00D31A9D462800FA
:1005D00001F054F9E846002400280BD029E031004E
:1005E0004B466143594352462800414401F0CAF941
:1005F0000134E4B2280001F0A1F90028EFD143460C
:10060000744318554146114806F046F8DD46BD468C
:1006100003B03CBC90469946A246AB46F0BD0C23C5
:100620003B6001339946013B7B60083B04269A46B8
:10063000C6E743467A6869469C5428003A6801F048
:10064000A1F9DFE734180020DC180020A49D001079
:10065000F0B58A4C83B02378002B1FD1884D280039
:1006600001F00CF9002800D088E0002006F060F8C6
:10067000DF231840542806D0522831D0422800D118
:10068000F2E003B0F0BD2378002B50D07D4D2B78E5
:10069000002BF6D17C4805F057FF4CE0794D2B78C4
:1006A000002BE2D1794E3178002952D0012900D1B6
:1006B00094E0022900D19FE0032900D1BBE0042986
:1006C000D3D16F4800F034FFFFF75EFF33787048F6
:1006D0000133337005F0E0FF6E4805F035FFC4E7E5
:1006E0006D4805F031FF00232370654C0122012184
:1006F0002000013301F0EEF8200000F057FA674DBA
:1007000004232A000121200001F0ECFC6A1D0423CF
:100710000121200001F0E6FC2A0004230121200031
:100720000A3201F0DFFC200000F096FDA9E75C48EA
:1007300005F00AFF534D012323700023504C534A08
:1007400020002B70137000F031FA200000F0F0FE52
:1007500097E7544805F0F8FE494F0023380000227F
:10076000012101F0B7F8504805F0EEFE3178032979
:10077000A5D8022922D10323337076E7280000F0A0
:10078000D7FEFFF701FF454E042332000121280068
:1007900001F0A8FC721D04230121280001F0A2FC35
:1007A0003200042301210A32280001F09BFCC820FA
:1007B00002F08EFA280000F04FFD56E701224B1C94
:1007C00033704B005918394B49002A705918009260
:1007D00000233800043201F039F846E7344805F0C8
:1007E000B3FE274F012338000022002101F072F8E8
:1007F000304805F0A9FEB9E7214F01230122013954
:10080000380001F067F82C4805F09EFE3378052289
:100810005900C918254B49003800591801F010F843
:10082000002816D0380001F029F8002818D02348F5
:1008300005F08AFE9AE7224805F086FE104F002355
:1008400038000022002101F045F81E4805F07CFE2A
:100850008CE71D4805F078FE380000F0A7F985E721
:100860001A4805F071FE81E7054800F00FFF1848AF
:1008700004F004FE0021030008009847DC18002063
:1008800034180020DE18002078A00010DB180020AB
:10089000E49F001010A0001098A00010F8030020A2
:1008A0003CA00010BC9D0010F49D00100804002026
:1008B000249E00105C9E0010889E0010CC9E0010AC
:1008C000809F0010AC9F0010489F0010049F0010F4
:1008D0005542000010B505F0EBFEFFF7C3FD002800
:1008E000FBD0FFF7B5FEFFF7B3FEFAE710B50548FA
:1008F00001F09CFC05220621034B044800F074F92A
:1009000010BDC046C00E002080969800341800200C
:10091000F8B557464546DE464E469A465E23E0B554
:10092000C35C04000D00002B00D07FE05333C35C98
:1009300098461F1C934200D985E04346FFB2DE1B58
:10094000F3B29B46E06801F0ABFC0021608901F046
:1009500059FC0021606E02F0A3F931239946434609
:100960000133DBB29846524631232100E2547B1E0C
:100970003231DBB208009C46A144002F33D00A007C
:1009800003232A43200013405A425A41062335309C
:10099000401B83429B415B4213425DD06346082B60
:1009A0005AD900230022B808AE580133DBB28E506A
:1009B00004329842F8D103233A009A431300AD1849
:1009C00088186246D21AD2B29F4209D02B7803709F
:1009D000002A05D06B784370012A01D0AB78837070
:1009E0006046013008185B46002B06D05E46013E8B
:1009F000F2B20021013205F041FC21004246484696
:100A0000103101F041FC5223227C0121E254608923
:100A100001F0F8FB0021606E02F042F901F054FC95
:100A20003CBC90469946A246AB46F8BD564256415C
:100A3000F3B29B46171C202A07D85B46FFB2FB186F
:100A4000DBB298467EE7171C77E720275B46FFB2AC
:100A5000FB18DBB2984675E70023EA5CCA54013301
:100A6000DAB29742F9D1BBE7F8B5CE4647465E23E6
:100A700080B5C35C04000E00002B00D081E053332E
:100A8000C55C2F1C954200D981E0FFB2E06801F0FF
:100A900007FC0021608901F0B5FB606E002102F0C7
:100AA000FFF8312399466B1CDBB2984620003123B6
:100AB0006122A1443230E254002D05D0013DEAB25A
:100AC000FF21013205F0DAFB210042464846103191
:100AD00001F0DAFB5223227CE254002F43D02100A4
:100AE000781E1131C0B20B0000283AD0023FFBB291
:100AF0003200984603230A43250013405A425341CB
:100B000006221435AD1BAA42924152421A4244D0E9
:100B10004346082B41D90023002285088F58013312
:100B2000DBB2B75004329D42F8D1032302009A434E
:100B30001300B5188A189446C21AD2B298420CD043
:100B400063461B782B70012A07D063465B786B7075
:100B5000022A02D063469B78AB7043460133F618F5
:100B6000CB181B7833706089012101F04BFB002109
:100B7000606E02F095F801F0A7FB0CBC9046994618
:100B8000F8BD171C202A04D8FFB23D007EE7171CD1
:100B90007BE72027FFB23D0078E70023CA5CF254D0
:100BA0000133DAB29042F9D1D7E7C04670B50400FC
:100BB000C06801F075FB6089002101F023FB002172
:100BC000606E02F06DF8E12001F048FB522560559F
:100BD0006089012101F016FB606E002102F060F8CF
:100BE00001F072FB605D70BDF8B504000F001600E7
:100BF0001D0001F01BFB5323202227816681E56045
:100C0000E254002201210733E252553B5D32A354E6
:100C10000132A154002263664F33E254034B9D42DC
:100C200001D8034BE3602000F8BDC046B88800003F
:100C300080969800F0B5DE4657464E46454604007D
:100C4000E0B5052083B002F043F8E06801F028FB2E
:100C50000021608901F0D6FA0021606E02F020F8D0
:100C6000312399464A460D3BA3540E33984625003E
:100C7000260042465227313510362D33A354310019
:100C8000303A280001F000FB237C0121E355608904
:100C900001F0B8FA0021606E02F002F801F014FBD6
:100CA0008C235B002366E06801F0FAFA002160897A
:100CB00001F0A8FA0021606E01F0F2FF26234A46F7
:100CC000A35442461F3BA3543100303A280001F0A0
:100CD000DBFA237C0121E355608901F093FA0021BE
:100CE000606E01F0DDFF01F0EFFAE06801F0D8FA84
:100CF0000021608901F086FA0021606E01F0D0FFCA
:100D00001D239B464B465A46E254CE339A464346F1
:100D100052463100E2542800FD3A01F0B5FA237C36
:100D2000E355617C60890191012101F06BFA00219A
:100D3000606E01F0B5FF01F0C7FAE06801F0B0FAAB
:100D40000021608901F05EFA0021606E01F0A8FFC9
:100D5000502001F083FAE055732001F07FFA012161
:100D6000608901F04FFA0021606E01F099FF01F0F7
:100D7000ABFAE06801F094FA0021608901F042FAD0
:100D80000021606E01F08CFF4B465A46E254434608
:100D900052463100E2542800FD3A01F075FA237CF6
:100DA0000121E355637C6089984601F02BFA00210C
:100DB000606E01F075FF01F087FA434601995B1AF6
:100DC0005A4253415A22A3544346002B25D088450A
:100DD00000D1F2E1E06801F063FA0021608901F0DE
:100DE00011FA0021606E01F05BFF31233D22E254D5
:100DF00000220133E25431002800023201F044FAAB
:100E00005223227C0121E254608901F0FBF9002188
:100E1000606E01F045FF01F057FA00239A465246F2
:100E20005C33E254E06801F03BFA0021608901F094
:100E3000E9F90021606E01F033FF312399464A46FB
:100E40000B33A354524652270A3BE254310002327C
:100E50002800984601F018FA237C0121E3556089A7
:100E600001F0D0F90021606E01F01AFF01F02CFAB8
:100E700052465E23E068E25401F012FA00216089D4
:100E800001F0C0F90021606E01F00AFF21234A46FB
:100E9000A35442461E33A3543100303A280001F0D7
:100EA000F3F9237C0121E355608901F0ABF90021BE
:100EB000606E01F0F5FE01F007FAE06801F0F0F96C
:100EC0000021608901F09EF90021606E01F0E8FECA
:100ED00022234A46A35442461F3BA3543100303AD2
:100EE000280001F0D1F9237C0121E355608901F04C
:100EF00089F90021606E01F0D3FE01F0E5F953237A
:100F00002022E254333B984611339A462023413F36
:100F10009B4602E05323E35C9846E06801F0C0F989
:100F20000021608901F06EF90021606E01F0B8FEC9
:100F30005B4652463B43A354322342463100E254BF
:100F400028000222994601F09FF952239846424612
:100F5000237C0121A3546089013701F053F9FFB2CA
:100F60000021606E01F09CFE01F0AEF9172FD1D187
:100F7000E06801F095F90021608901F043F9002152
:100F8000606E01F08DFE23235246A3544A46203B57
:100F9000A35431000222280001F076F94246237C56
:100FA0000121A354608901F02DF90021606E01F048
:100FB00077FE01F089F95D230522E254E06801F033
:100FC0006FF90021608901F01DF90021606E01F0C8
:100FD00067FE25235246A3544A462733A3543100C3
:100FE0000222280001F050F94246237C0121A3543B
:100FF000608901F007F90021606E01F051FE01F0F7
:1010000063F9E06801F04CF90021608901F0FAF819
:101010000021606E01F044FE27235246A3544A4645
:101020004933A35431000222280001F02DF9424631
:10103000237C0121A354608901F0E4F80021606E53
:1010400001F02EFE01F040F9E06801F029F90021DD
:10105000608901F0D7F80021606E01F021FEE220E6
:1010600001F0FCF84346E0540121608901F0CAF820
:101070000021606E01F014FE01F026F9E06801F035
:101080000FF90021608901F0BDF80021606E01F0C8
:1010900007FEE12001F0E2F84346E05401216089B7
:1010A00001F0B0F80021606E01F0FAFD01F00CF9DA
:1010B000E06801F0F5F80021608901F0A3F8002153
:1010C000606E01F0EDFD53462022E2540C234A46A7
:1010D0003100A3542800022201F0D6F84246237CB6
:1010E0000121A354608901F08DF80021606E01F0A8
:1010F000D7FD01F0E9F8E06801F0D2F8002160893D
:1011000001F080F80021606E01F0CAFD0023524614
:10111000A3544A46FF33A35431000222280001F0B1
:10112000B3F84246237C0121A354677C608901F017
:1011300069F80021606E01F0B3FD01F0C5F8BB074E
:101140000CD55923E7540E3F78427841C0B203B022
:101150003CBC90469946A246AB46F0BD02231F43D5
:101160005923FFB2E754E0689B4601F099F800214B
:10117000608901F047F80021606E01F091FD53464F
:101180002022E2544B463100E75428001E3A01F079
:101190007BF84246237C0121A354608901F032F898
:1011A0000021606E01F07CFD01F08EF800211148F5
:1011B00001F076FD5B46E75CC5E7E06801F070F89A
:1011C0006089002101F01EF80021606E01F068FDC9
:1011D000502001F043F8E055732001F03FF860899A
:1011E000012101F00FF80021606E01F059FD01F0BE
:1011F0006BF8EFE58813000010B50400144801F007
:101200001BF82289134B9A4220D0608998421DD046
:10121000824210D01000012100F0E4FF608901211A
:1012200000F0E0FF23896089834204D01800002188
:1012300000F0E8FF6089012100F0E4FF606E00210A
:1012400001F02EFD2000FFF7F5FC00E0002010BDAE
:1012500000C00340FFFF0000F0B55746DE464E4693
:101260004546E0B55927C35D040083B09A0700D412
:1012700024E1050006003135103601271F435923AC
:10128000E754E06801F00CF80021608900F0BAFF33
:101290000021606E01F004FD312399464A46113B5E
:1012A000A3541233E75452272F3A310028009846AE
:1012B00000F0EAFF237C0121E355608900F0A2FFE2
:1012C0000021606E01F0ECFC00F0FEFFE06800F031
:1012D000E7FF0021608900F095FF0021606E01F0BA
:1012E000DFFC27234A46A35442464933A354310026
:1012F000303A280000F0C8FF237C0121E3556089C3
:1013000000F080FF606E002101F0CAFC00F0DCFFFD
:1013100020896389834202D0012100F073FF5B279B
:10132000E35D9846002B00D174E05D23E35CE06848
:10133000984600F0B5FF0021608900F063FF0023AC
:101340000021606E994601F0ABFC43465A1CD3B2B3
:101350002A213122A1544246501EC2B227009C4687
:1013600093462300424654373233002A39D02200B4
:1013700049465832934249410A00210048463631D5
:101380008F4240410100114308225A459241524286
:101390000A4200D1C2E01A003A43920700D0BDE0F1
:1013A0004246920892460021002278580132585055
:1013B000D0B204318245F8D80322414691430A0055
:1013C0005946881AC0B2BF189B18904509D03A7880
:1013D0001A70002805D07A785A70012801D0BA789E
:1013E0009A7062463100280000F04EFF5223227CA2
:1013F0000121E254608900F005FF0021606E01F0D8
:101400004FFC00F061FF03B03CBC90469946A246F9
:10141000AB46F0BDE06800F043FF0021608900F0BA
:10142000F1FE0021606E01F03BFC31239B465A46E1
:101430002F3BA35430339A465246CD33A354310048
:101440002800303A00F020FF522399464A46237C78
:101450000121A354637C6089019300F0D3FE002135
:10146000606E01F01DFC00F02FFFE06800F018FF37
:101470000021608900F0C6FE0021606E01F010FCC2
:1014800022235946019A6354213B9A431300524642
:101490003100A3542800303A00F0F6FE4A46237C7F
:1014A0000121A354608900F0ADFE0021606E01F0BF
:1014B000F7FB00F009FF4346E355A4E702261E436D
:1014C000F6B2C655C06800F0EBFE0021608900F05E
:1014D00099FE0021606E01F0E3FB31232022E254EB
:1014E0000133E6542500260031351036310028003E
:1014F0001E3A00F0C9FE5223227C0121E254608989
:1015000000F080FE0021606E01F0CAFB00F0DCFEFE
:101510000021064801F0C4FBE35DAEE600217A5CE1
:101520005A540131CAB29045F9D15AE788130000E4
:10153000F0B5D6464F4646460400C0B563890089DB
:10154000834202D0002100F05DFE236E1800D917FF
:1015500001F0A6FB5C23E35C002B00D07AE059236A
:101560000122E55C26009543E554E06800F098FE12
:101570000021608900F046FE0021606E01F090FBC2
:1015800031239A4652462700113BA3541233E554A7
:101590005225313610372F3A39003000984600F086
:1015A00073FE237C01216355608900F02BFE00212E
:1015B000606E01F075FB00F087FEE06800F070FEE1
:1015C0000021608900F01EFE0021606E01F068FBC2
:1015D00052460223A3544246FD3339003000A3543F
:1015E000303A00F051FE237C01216355637C608911
:1015F000994600F007FE0021606E01F051FB00F0FB
:1016000063FEE06800F04CFE0021608900F0FAFD06
:101610000021606E01F044FB52462223A3544A4647
:1016200001231343424639003000A354303A00F0FE
:101630002BFE237C01216355608900F0E3FD00212E
:10164000606E01F02DFB00F03FFE1CBC90469946F9
:10165000A246F0BDE06800F023FE6089002100F0A2
:10166000D1FD0021606E01F01BFBE12000F0F6FDD2
:101670005223E0546089012100F0C4FD0021606E16
:1016800001F00EFB00F020FE69E7C04670B50400D3
:1016900000896389834202D0002100F0B3FD592301
:1016A0000222E55C9543E554E06800F0F9FD6089AD
:1016B000002100F0A7FD606E002101F0F1FA312356
:1016C000202221002000E2540133E5541031313052
:1016D0001E3A00F0D9FD5223227C0121E254608998
:1016E00000F090FD0021606E01F0DAFA00F0ECFDF0
:1016F00070BDC04670B50400581E83415842102387
:101700000340A0332000FFF703F920896389834257
:1017100002D0012100F076FD01F0C8FB002900D1C4
:1017200084E0FA220023920003F040FF06005225D5
:10173000E06800F0B5FD0021608900F063FD002144
:10174000606E01F0ADFAFF2000F088FD60550121C8
:10175000608900F057FD0021606E01F0A1FA00F0F1
:10176000B3FD3022635D1A4218D101F09FFB0029BE
:101770000CD0FA220023920003F018FF801B5F2890
:10178000D6D95F2301220020E25470BDFA218900DE
:1017900003F0CAFE801B5F28CAD9F2E7208963895B
:1017A000834249D1E06800F07BFD0021608900F0B0
:1017B00029FD0021606E01F073FA312327222100F8
:1017C00020005225E25401334932E25410316E3A7E
:1017D000313000F059FD237C01216355608900F010
:1017E00011FD606E002101F05BFA00F06DFD635D9C
:1017F0000120DB06C9D5E06800F052FD00216089B8
:1018000000F000FD0021606E01F04AFAE12000F0D6
:1018100025FD60550121608900F0F4FC606E002117
:1018200001F03EFA00F050FD0020AEE7FA218900F9
:1018300003F07AFE06007AE7002100F0E3FCB1E74E
:1018400010B50023FFF756FF10BDC04670B55C1EF3
:10185000A3415C421023050004A806782340280019
:10186000A033FFF755F8002E03D028896B898342F7
:1018700000D170BD012100F0C5FCFAE770B504008D
:10188000C06800F00DFD6089002100F0BBFC606EB7
:10189000002101F005FA3123172221002000E25433
:1018A0000133E832E25410313130FD3A00F0ECFC03
:1018B0005223227C0121E254657C608900F0A2FC65
:1018C000606E002101F0ECF900F0FEFCA807C00FEB
:1018D00070BDC0469B0149011943592312011143B0
:1018E000702270B50400C55C95430D43EDB2C5543C
:1018F000C06800F0D5FC6089002100F083FC606EB8
:10190000002101F0CDF93123202221002000E254F2
:101910000133E554103131301E3A00F0B5FC52234A
:10192000227C0121E254608900F06CFC0021606E91
:1019300001F0B6F900F0C8FC70BDC04670B50400F7
:10194000C06800F0ADFC6089002100F05BFC002164
:10195000606E01F0A5F9FF2000F080FC5225605573
:101960006089012100F04EFC606E002101F098F9C1
:1019700000F0AAFCC023605D1B060007984280416E
:10198000404270BD10B50400FFF76EF8E06800F04B
:1019900087FC6089002100F035FC606E002101F0B9
:1019A0007FF93123272221002000E254013319322C
:1019B000E254103131303E3A00F066FC5223227C72
:1019C0000121E254608900F01DFC0021606E01F0ED
:1019D00067F900F079FC10BDF0B5C646040000B50B
:1019E000C06817001E00884600F05AFC608900217C
:1019F00000F008FC606E002101F052F9312327222B
:101A0000210020005225E25401334932E2541031C2
:101A10006E3A313000F038FC237C01216355608937
:101A200000F0F0FB606E002101F03AF900F04CFC90
:101A300001204246635D5B0903401370615D090943
:101A400001403970635D9B091840307004BC9046BA
:101A5000F0BDC046F0B5D64646464F465D2304006D
:101A6000C0B5C75CC0680D0000F01AFC0021608999
:101A700000F0C8FB0021606E01F012F931237A1CDE
:101A80009846D3B29A462A2131232600E1547B1E80
:101A9000A0443236DBB2002F31D028002739304342
:101AA000014020004A424A4106213530401B814214
:101AB00089414942114200D19BE0082B00D898E0AF
:101AC000BA089446002100202A580131C9B2325088
:101AD00004308C45F8D10321380088431B1A0100DB
:101AE0002A18DBB230188F4209D011780170002B10
:101AF00005D051784170012B01D093788370102369
:101B00009946A14452464946404600F0BDFB522347
:101B1000227C0121E254608900F074FB0021606E98
:101B200001F0BEF800F0D0FB5D23E068E75C00F058
:101B3000B7FB0021608900F065FB0021606E01F0B9
:101B4000AFF87A1CD3B29A4630213123E1547B1E80
:101B5000DBB2002F2ED030002D39284301404842FF
:101B60004841210035314A1B0621914289414942B1
:101B7000014236D0082B34D9BA08944600210020FF
:101B80002A580131C9B2325004308C45F8D10321B2
:101B9000380088431B1ADBB22D183618874209D04B
:101BA00029783170002B05D069787170012B01D034
:101BB000AB78B37052464946404600F065FB52236D
:101BC000227C0121E254608900F01CFB0021606E40
:101BD00001F066F800F078FB1CBC90469946A246DE
:101BE000F0BD0023E95CF1540133D9B28F42F9D141
:101BF000E0E70023E95CF1540133D9B28F42F9D117
:101C00007DE7C046F8B54E464546DE4657460400D9
:101C1000E0B50D001600002908D0052900D8D3E052
:101C20003CBC90469946A246AB46F8BD5D233100C8
:101C3000C25C543004F028FB5B230122E254774B52
:101C4000E0685B5D270099465D23E35C3137984689
:101C500000F026FB0021608900F0D4FA606E0021BC
:101C600001F01EF843465A1CD3B29C464A461F2335
:101C70001340202213433122A35443465A1ED3B2A9
:101C800020009A4643463230002B34D00100032313
:101C900031430B4059425941230035339B1B994630
:101CA00006234B459B415B420B4200D1ADE05346BE
:101CB000082B00D8A9E043469B0899460021002341
:101CC00072580133DBB2425004319945F8D10323F5
:101CD0004146994353465A1AD3B27618401888455C
:101CE00009D032780270002B05D072784270012B37
:101CF00001D0B37883702600624610363100380078
:101D000000F0C2FA5223227C0121E254608900F0E3
:101D100079FA0021606E00F0C3FF00F0D5FAE068A8
:101D200000F0BEFA6089002100F06CFA606E0021BC
:101D300000F0B6FF31239A4652462F3BA35430336E
:101D400099464A46CD33A35431003800303A00F06A
:101D50009BFA522398464246237C0121A354637C7C
:101D600060899B4600F04EFA0021606E00F098FFFB
:101D700000F0AAFA2A4BE0685B5D01259D405B46B6
:101D80001D4300F08DFA6089002100F03BFA606E7F
:101D9000002100F085FF52462223A3544B46EDB2AA
:101DA00031003800E5542F3A00F06EFA4246237CA9
:101DB0000121A354608900F025FA0021606E00F033
:101DC0006FFF00F081FA2BE7012900D137E7134BB1
:101DD000C0685B5C2700984600F062FA00216089C9
:101DE00000F010FA0021606E00F05AFF42461F23F7
:101DF0001340202213433122A35432783223260089
:101E0000E25431370222103678E70023F25CC254E4
:101E10000133DAB29045F9D16DE7C046E0A0001079
:101E2000E8A00010F8B5DE4657464E464546040089
:101E3000E0B5C06800F034FA0021608900F0E2F9F2
:101E40000021606E00F02CFF312399464A46143B76
:101E5000A35415339846CD339B46260027004346AE
:101E60005A4652253136103739003000E254FD3AD7
:101E700000F00AFA237C01216355637C60899A464D
:101E800000F0C0F90021606E00F00AFF00F01CFABB
:101E9000E06800F005FA0021608900F0B3F9002144
:101EA000606E00F0FDFE4A463D23A35452460423D3
:101EB0001343424639003000A354303A00F0E4F9AD
:101EC000237C01216355608900F09CF90021606E3C
:101ED00000F0E6FE00F0F8F9E06800F0E1F900211A
:101EE000608900F08FF90021606E00F0D9FE4A464B
:101EF0001C23A35443465A4639003000E254FD3AAD
:101F000000F0C2F9237C01216355637C60899A4605
:101F100000F078F90021606E00F0C2FE00F0D4F904
:101F2000E06800F0BDF90021608900F06BF9002144
:101F3000606E00F0B5FE4A463C23A35452463F2350
:101F40001343424639003000A354303A00F09CF964
:101F5000237C01216355608900F054F90021606EF3
:101F600000F09EFE00F0B0F95E230122E2543CBC7A
:101F700090469946A246AB46F8BDC046F0B54546E8
:101F8000DE4657464E46E0B55C25435D040083B00F
:101F9000002B06D003B03CBC90469946A246AB4607
:101FA000F0BDC06800F07CF90021608900F02AF9DA
:101FB0000021606E00F074FE31239A465246143BB5
:101FC000A35415339946CD339B464B465A46E254AB
:101FD000223B9846270052263137A044FD3A41461D
:101FE000380000F051F9237C0121A355637C6089FE
:101FF000019300F007F90021606E00F051FE00F03F
:1020000063F9E06800F04CF90021608900F0FAF80B
:102010000021606E00F044FE3D23514663540623C8
:10202000019A414613434A463800A354303A00F01F
:102030002BF9237C0121A355608900F0E3F80021EE
:10204000606E00F02DFE00F03FF9E06800F028F926
:102050000021608900F0D6F80021606E00F020FEBB
:102060001C235246A3544B465A464146E25438007C
:10207000FD3A00F009F9237C0121A355637C6089B6
:102080009B4600F0BFF80021606E00F009FE00F0F2
:102090001BF9E06800F004F90021608900F0B2F853
:1020A0000021606E00F0FCFD3C235246A3545A46CA
:1020B000032313434A464146A3543800303A00F004
:1020C000E3F8237C0121A355608900F09BF80021EF
:1020D000606E00F0E5FD00F0F7F801235E22A354E6
:1020E000635557E770B50D0011001A005C2304001A
:1020F000C05C002800D170BD553B1D40A1332000BD
:102100002B43FEF705FC52230120E35C9843F2E7E2
:10211000F8B5CE464746040080B5C068894616002B
:1021200000F0BEF80021608900F06CF80021606EBC
:1021300000F0B6FD31230622E2540133F932E254B5
:10214000223B98462700A044313741463800FD3AEB
:1021500000F09AF85223227C0121E2546089657CC8
:1021600000F050F80021606E00F09AFD00F0ACF82D
:1021700007239D434B464A46032B00D903225200B6
:10218000B218E068154300F08BF86089002100F078
:1021900039F8606E002100F083FD31232622EDB274
:1021A000E254013341463800E554243A00F06CF81B
:1021B0005223227C0121E254608900F023F800219F
:1021C000606E00F06DFD00F07FF80CBC9046994603
:1021D000F8BDC04610B5024800F028F810BDC04652
:1021E000C40E002070B504000D0000F007F90123B3
:1021F000D022A3401206002D01D0536270BD93621D
:10220000FCE7C0460123D02283401206002901D0FA
:10221000536170479361FCE77047C04610B50400F6
:10222000042104F037F8200010BDC046014B0833EC
:1022300003607047F0A0001010B5074B0121186033
:10224000122000F087F80121132000F083F801210B
:10225000102000F07FF810BDC80E002000B585B03A
:102260006B466A46D91D0023D3730F22054B0870B5
:102270006A441868012307F0B7FC6B46D87B05B0A9
:1022800000BDC046C80E002010B504001300034A6C
:1022900010680A00210007F0A7FC10BDC80E00203E
:1022A00010B5084C0100206806F070FF0721206877
:1022B000802302685B015140CF2203430A401A6029
:1022C00010BDC046C80E002010B5024B186806F0BD
:1022D000D7FF10BDC80E0020D0231B06F0B51E6826
:1022E000C646731E9E41734230261E40164B002484
:1022F0009C46164B07270F25984600B56644E00814
:1023000003003A0008339B009B5922409200D340BF
:10231000290019401D4210D00B0093401A003C3098
:102320000B4B8000C250D02342461B061B689B000B
:102330009B58002B01D02000984701341E2CDED181
:1023400004BC9046F0BDC04600410140D00E0020C4
:1023500000400140094A830094464022634410B57E
:102360001C68C0006240C024144080225201134304
:102370001C60034B9C466044416010BD04C001409A
:102380000040014070B50600D02000060468F50842
:10239000601E844130206442044014488446072073
:1023A0003040800081402800114E3C306444800061
:1023B000AD0081516419002A12D080229201144389
:1023C0002160D022120612680A49920053500D2053
:1023D000094901F0E3FA01210D2001F0BDFA70BDB9
:1023E000C022920114432160EBE7C0460041014046
:1023F00000400140D00E0020D92200100123D0223D
:102400008340120693629361094A830094464022F6
:1024100063441968C0004A40C02111408022520123
:1024200013431960034B9C46052360444360704787
:1024300004C0014000400140F8B5EFF3108772B6C8
:102440000E4E3368002BFCD0BFF35F8FCB08C4184F
:102450000725A446C45C01230D40AB401800204072
:10246000234208D1624623431370BFF35F8F30606D
:1024700087F31088F8BD100001F0ECF82C0100D0B3
:10248000F8B5CE4647468C4680B5EFF3108872B655
:10249000214D2C68002CFCD0BFF35F8F9A422CD8C2
:1024A000D4080721055D0619012411408C402C42F7
:1024B0001FD007218946063909E0D408055D0619B1
:1024C0004C460F001440A7403C002F4211D001326F
:1024D0009342F2D201204042BFF35F8F00220E4BA5
:1024E0001A6088F3108800280FDB0CBC90469946D0
:1024F000F8BD2C4310003470EEE7BFF35F8F00236C
:102500002B6088F31088012040426346002BECD0FA
:10251000089801F09FF8C0462C0100D0024B1868C3
:102520008007C00F7047C04600C006400021044B22
:10253000044ABFF35F8F02C39342FAD17047C0468B
:10254000000100D0800100D0044A1078431CDBB2A7
:10255000172B00D9102313707047C04620040020A9
:1025600000B5054B83B00100009318221F230348D8
:10257000FFF786FF03B000BD00A100107813002014
:1025800083680B4810B58446614462440901120116
:102590009A18591854684B6801209C4201D802D0FF
:1025A0000020C0B210BD12680B689A42F9D8F7E754
:1025B000FFFFFF0F0A4B1968EFF3108072B60A682D
:1025C000002AFCD0BFF35F8F1B68BFF35F8F002230
:1025D0001A6080F3108840BF002000217047C04679
:1025E000A8180020F8B557464E464546DE46E0B5E9
:1025F000434D81468A466A68EFF3108872B61368C5
:10260000002BFCD0BFF35F8F2E68B47B002C3ED034
:10261000670033683F19033FDA195378B373002B0F
:1026200000D1F3730023937053701370A968354A77
:102630008C464946A218120162441160514651600D
:102640003149D36091603268D2199370537013701E
:10265000737B9B46002B35D022001900B06873684D
:1026600098473268002820D05B4658465B005B44A0
:10267000D719033BB870D118D35C002B00D07B7006
:102680005B460C7073735C451DD0002626E06B68BA
:10269000BFF35F8F1C6088F31088012040423CBC70
:1026A00090469946A246AB46F8BD5B465B005B444C
:1026B000033BD3189C70D119D25D002A00D05A7008
:1026C0005B460B7074734A465346287D00F078FCD5
:1026D000061EDAD02100286800F0EAFEEB686A687E
:1026E0001B19013B1B78BFF35F8F0021116088F33A
:1026F00010880020002ED2D118022043CFE7C04618
:1027000024040020FFFFFF0FB5250010F8B5574641
:1027100045464E46DE46E0B599460CAB19780DAB02
:102720001B78050090469A460768002912D1BE7BA7
:10273000002E45D074003B68A419033C1B195A783D
:102740003100BA73002A00D1FA7300229A705A70CD
:102750001A7003E00E004C006418033C2C4B00225E
:102760009C46AB6861449C464346090161440B604A
:102770004B464B600A9B8B600B9BCB603B681B19E5
:102780009A705A701A707B7B9B46002B2CD03200BB
:102790005946B8687B6898473A68002817D05B4666
:1027A00058465B005B441419033BA070D118D35CFE
:1027B000002B00D063705B460E707B73B34514D062
:1027C00030003CBC90469946A246AB46F8BD5B46FD
:1027D0005B005B44033BD3189E701119125D002A05
:1027E00000D05A705B460B707E7342464B46287D84
:1027F00000F0E6FB041E06D05346002B03D1310047
:10280000286800F055FE0E9B002BD9D01C70D7E72E
:10281000FFFFFF0FF0B5DE464E4657464546002304
:10282000E0B58DB00A936B4B8200D3580B9099465C
:1028300000239B464B46079300F038FB079C06009D
:102840000F006268EFF3108572B61368002BFCD09E
:1028500022000794BFF35F8F2468637B9946002BA7
:1028600067D092685C4B90464B441B0198444346AA
:102870001A685B6810001900801BB94100295FDDF0
:102880000B9800F09DFB00230026984600279A46EF
:10289000079C6368BFF35F8F5A461A6085F3108800
:1028A0005346002B08D10028C6D10DB03CBC904641
:1028B0009946A246AB46F0BD0A9B414618024B46DC
:1028C0001843D047089009916268EFF3108572B6FB
:1028D0001368002BFCD00794BFF35F8F0899099A07
:1028E000002A48DB114303D0079B1B69002B5DD1F5
:1028F000079B1B68DA7B002A07D051008A181968E9
:102900008C4649466244033A51704A46DA734B4654
:10291000079A013BD168CA5C0132CA545B46079AE8
:1029200013615368BFF35F8F5A461A6085F31088AE
:1029300082E700230026984600279A460020A7E752
:10294000002901D100289BD10021200000F012FDB8
:1029500043461E685F689B68079A9A464346DB6851
:102960009846D3684B44013B1B780A931B020343F0
:10297000136100208CE72369002BB9D033003C00A1
:102980005B1A94411A002300A74219D89F421BD01A
:102990005946049101210391494602914146019112
:1029A000514607980091FFF7B1FEB7E700F07EFAB5
:1029B000089A099B06000F0092197B419942E5D9BC
:1029C00001225242D317E3E79642E1D90122524253
:1029D000D317DDE724180020FFFFFF0F10B5124CBE
:1029E0006368002B04D00A21104800F07BFB10BD67
:1029F00023000F4A1021206800F0DAFB032000F0CA
:102A000049FA032000F04EFB03200A4900F092FA35
:102A1000FFF79AFD084B9C46032360442375074B40
:102A200080006060DC60DEE724040020A81800203D
:102A300081250010152800104000003424180020C3
:102A40000048704724040020F0B557464546DE464E
:102A50004E46E0B585B0019310AB1B780027039379
:102A6000002380469A46009243465A68EFF3108945
:102A700072B61368002BFCD0BFF35F8F43461D680E
:102A8000AC7B002C4FD066002B683619033E9B1997
:102A90005A78AA73002A00D1EA7342469F705F7089
:102AA0001F709268524B94460099019AE3181B01DB
:102AB000634419605A600E9A9A600F9ADA602B6824
:102AC0009B199F705F701F706B7B9B46002B46D0DD
:102AD00022001900A8686B6898472A68002831D03E
:102AE0005B4658465B005B449619033BB070D118B7
:102AF000D35C002B00D073705B460C706B735C452D
:102B00002ED04346DB681B19013B187843465B68AF
:102B1000BFF35F8F1F6089F310885346002B2ED1BF
:102B20000002204307E05B68BFF35F8F1C6089F3FE
:102B300010880120404205B03CBC90469946A24610
:102B4000AB46F0BD5B465B005B44033BD3189C7017
:102B50009119925D002A00D05A705B460B706C731D
:102B60004346187D009A019B00F02AFA824600280D
:102B7000C7D043462100186800F09AFCC1E7039BC8
:102B8000002B32D00E9B00200F99984703000400C1
:102B90000D000B4329D000290DDA0098019902009D
:102BA0000B00121BAB41994215D81AD00092019329
:102BB000039B9A4658E700F079F902000B00A4182D
:102BC0005D412000290000900191AB4203D8EFD174
:102BD00000998A42ECD901235B42DC1700930194EF
:102BE000E6E700999142E1D9F5E70020A3E7C04666
:102BF000FFFFFF0FF0B504000D0006267642F71721
:102C0000C64636196F4100B58F4213D810D000F078
:102C10004DF932003B00121A8B41002B14DC002BC3
:102C200037D02900200000F075F904BC9046F0BDB3
:102C30008642ECD90026002700F038F932003B002C
:102C4000121A8B41002BEADD30003900FFF7CAFC75
:102C50000028E6DB00239846BC460F4A0F4F7B6AEC
:102C60009C4504D8B96A8E42DBD99C45D9D11168FC
:102C7000EFF3108072B60B68002BFCD0BFF35F8FB0
:102C80001368BFF35F8F4146196080F3108820BF3F
:102C9000E5E7002AC5D0D7E7A81800200040054086
:102CA00070B504000D0000F001F902000B002000D7
:102CB0002900801859418B4205D802D0FFF79AFFAE
:102CC00070BD8242FAD901204042C117F6E7C046E2
:102CD00070B5060000F0EAF8FA2204000D000023A7
:102CE00030000021920003F05BFA001969418D4227
:102CF00005D802D0FFF77EFF70BD8442FAD90120CB
:102D00004042C117F6E7C046F8B5CE46474680B503
:102D100006000C00FFF766FC00280CDC2D4B0020A1
:102D2000596A8C4203D89B6A0130B34245D30CBC2C
:102D300090469946F8BD20BF274D6A68EFF310878B
:102D400072B61368002BFCD0BFF35F8F2B68C1B243
:102D50009C465B7B8B4235D0FF2303405A00914653
:102D600062461268994490464A464244033A927831
:102D7000002A1DD0EA68000A90464344013B1B78B4
:102D8000C0B2834221D06B68BFF35F8F00221A600C
:102D900087F310880F4A0020536A9C42C7D8926A72
:102DA0000130B242C3D2E41A601E8441E0B2BEE7F1
:102DB0002B699842E7D12A61E5E7641A601E8441D5
:102DC000E0B2B4E7FF230340D4E7604600F070FBB5
:102DD000D9E7C0460040054024040020F0B5D6469F
:102DE0004F464646C0B5EFF305833F221340180017
:102DF0001038EFF3108C72B6204D2A68002AFCD0F0
:102E0000BFF35F8F0122110081401D4C8846616332
:102E10001C4917000E788A463100C1400F400A4213
:102E200015D019498200646A51588C4219D3174B46
:102E3000D25843469E4353461E70BFF35F8F002314
:102E40002B608CF31088002A06D0904704E0BFF373
:102E50005F8F2F608CF310881CBC90469946A24669
:102E6000F0BD0B4A9B00904643441A681A60BFF3BA
:102E70005F8F00232B608CF31088EDE7280100D0D2
:102E800000400540DD180020B41800206812002022
:102E9000D03F054010B50100024A0348FFF7CCFAC5
:102EA00010BDC04628A10010D8180020034B596A55
:102EB0000A00986A596A8A42FAD170470040054070
:102EC00070B504000D00124A536A1900966A536ADD
:102ED0008B42FAD13000190024184D41AB4211D871
:102EE0000ED02B000A494A6A9A42FCD307D1084AFD
:102EF00002E0516A994202D1916AA142F9D370BDB0
:102F0000A642EED9012301246442E5175B42E9E7BA
:102F100000400540064A536A9942FCD807D1044B49
:102F200002E05A6A914202D19A6A8242F9D370470A
:102F30000040054070B504000D00EFF3108672B636
:102F40001A4A1368002BFCD0BFF35F8F002D1BD0F3
:102F5000200000F01BFD164981420AD0200000F03D
:102F60001DFD0121200000F0F7FC0123A340114AC0
:102F70001360114BA400E550BFF35F8F00220B4B91
:102F80001A6086F3108870BD0B4BA200D550012249
:102F9000A2400A4920000B7893430B70044900F0CB
:102FA00027FD0021200000F0D7FCE5E7280100D034
:102FB000DD2D00103860054068120020DD1800206B
:102FC000F0B54F46D6464646C0B50700304C616A5C
:102FD0000D00A66A616AA942FAD18B4208D805D0D1
:102FE00001201CBC90469946A246F0BDB242F7D9DA
:102FF000EFF3108972B6274801680029FCD0BFF3AF
:103000005F8F01252449BD408C460978204C0E0075
:103010002E438846F1B28A46614650460870391DF3
:103020001E48890065630A51B9000B50216A0020CF
:10303000294219D0616A0800A66A616A8142FAD100
:103040008B4219D801D1B24216D8C2451DD0104BBF
:103050001F201D625D6301230740BB40104A1E38DC
:103060001360634642461A70BFF35F8F0022094B1C
:103070001A6089F31088B4E70020BFF35F8F002245
:10308000044B1A6089F31088ABE70120ECE7C046D7
:1030900000400540280100D0DD180020B4180020B1
:1030A00080E200E010B5EFF3108472B60A490B68B5
:1030B000002BFCD0BFF35F8F01238340074A0848F1
:1030C000136202789A430270BFF35F8F00230B6094
:1030D00084F3108810BDC046280100D00040054090
:1030E000DD180020024B9C46614489000160704756
:1030F0004000003410B50400FFF726FA010020005C
:10310000FFF7F0FFFF232371BFF35F8F10BDC046B1
:1031100010B50400FFF718FA01002000FFF7E2FFE6
:10312000FF23A380BFF35F8F10BDC04610B504001E
:103130000120FFF715FA034BC3189B002360BFF370
:103140005F8F10BD4000003470B505000E00140004
:10315000002924D0002A24D080686B689847296809
:1031600000280ED063001B197200033B9219CB1884
:10317000033A9E7088188A5C002A14D104703000CB
:103180000EE073009B196200033B1219CB18033A3F
:103190009C7088188A5C002A00D05A700670200043
:1031A00070BD0800FCE75A7004703000F8E7C046B4
:1031B00030B583600023CCB24373013304734260A3
:1031C0008373C4730D000068012C06D9421C0133BF
:1031D000DBB2137003329C42F9D1FF2129404B002E
:1031E0005918002340180338437030BDF8B5CE4657
:1031F000474606000C0080B5002907D04D00036843
:103200006D18033D5A195778002F04D120000CBCCB
:1032100090469946F8BD7900C91903398846434458
:103220005978894600215970517073683A0021001D
:10323000806898473368002814D042469A189470E2
:1032400059195B5D002B00D053700F702700494661
:103250003000FFF7CBFF390002003000FFF774FFAA
:103260000400D3E7424641465D19AF709A185B5C93
:10327000002B00D06B701470E9E7C046F0B55746DC
:103280004546DE464E46E0B50D006B0001685B1911
:10329000DF1E0400C85D83B00192CA1900284CD01B
:1032A00043001B18033BCB185E78B446002E16D1A2
:1032B000019E002E3ED0E67B002E04D073009B19A9
:1032C000CB18033B5D70E57300282FD100235370AA
:1032D00003B03CBC90469946A246AB46F0BD720096
:1032E0006244033A89184A78904600224A7091460F
:1032F0005A70010032002000FFF726FF4346824645
:10330000002B07D05B0021684344033BCB185A785D
:10331000002A16D1424651462000FFF715FF2168CA
:10332000019BCA19002BC6D10028CFD043001B181F
:10333000033BCB1800219970C8E7019B002BBAD141
:10334000C4E7500080180338091848788346484677
:103350004870587041462000FFF7F6FE59468046F7
:103360002000FFF743FF414602002000FFF7ECFE7C
:103370008046CFE7F0B54E464546DE465746E0B5B7
:10338000467B040075000068AD19033D83B00191D0
:10339000415D421900294ED04B005B18033BC31816
:1033A0005F78BC46002F18D1019D002D40D0E57BF1
:1033B000002D04D06B005B19C318033B5E70E673ED
:1033C000002931D1002330005370617303B03CBC3D
:1033D00090469946A246AB46F0BD7A006244033A55
:1033E0008018427893460022427091465A7020001D
:1033F0003A00FFF7A9FE5B468046002B07D05B0032
:1034000021685B44033BCB185A78002A17D15A46EF
:1034100041462000FFF798FE019B010020684219F9
:10342000002BC4D10029CDD04B005B18033BC3183F
:1034300000209870C6E7019B002BB8D1C2E750006E
:1034400080180338091848788246484648705870F2
:1034500059462000FFF778FE53468346002B07D0DD
:103460005B0021685344033BCB185A78002A06D1ED
:10347000594652462000FFF767FE8346C7E75000D3
:1034800080180338091848464F78487058705146DC
:103490002000FFF759FE390081462000FFF7A6FE05
:1034A000494602002000FFF74FFE8246E0E7C04693
:1034B00070B5040000292CD0437B8B422ED00568C8
:1034C00048004018033828188278002A21D0530079
:1034D0009B18033BEA5CEE188A4202D11BE0002AEB
:1034E00008D053009B18033BEB185A788A42F6D158
:1034F00042785A7000230122837043702000FFF746
:10350000BDFE617B02002000FFF71EFE60730120FC
:1035100000E0002070BD43783370EBE70122190012
:10352000FFF7ACFE60730120F4E7C0462C4B2D4A38
:1035300070B51A602C4A2D4B2D491A6010008B680B
:103540009843FBD12B4C2C4B9C4209D2013B1D1BB9
:10355000AD080135AD002D1908CC9847AC42FBD120
:1035600000F096F8254A214B1A60214A9368DB0146
:103570008033FBD14022224B224C234D9A675A675D
:103580001A67DA66AC4208D223682000002B21D0EB
:103590000834FFF7BDFDAC42F6D31C4C1C4DA168AE
:1035A000C022280002F070FEA560FEF7BFFF00F009
:1035B00057FBFFF713FA174C174B9C4209D2013BFC
:1035C0001D1BAD080135AD002D1908CC9847A5424B
:1035D000FBD170BD0834FFF78DFDAC42D4D3DCE7DE
:1035E00000E00040BFCDFBFEFE7F3C0000F000404D
:1035F00000C00040480D0020580D0020FFFFFF01D3
:1036000000F00140400D0020480D002000ED00E0DA
:1036100000000020580D0020680D0020094A03001A
:103620001068002805D00849C3188B4207D81360DA
:10363000704706480449C31810608B42F7D901202F
:103640004042F5E71414002000000420A41B0020D1
:1036500000BEFDE70FB400B5084883B002F074FF68
:10366000049B002B07D005A91800019101F0E6FE8C
:10367000034802F069FF00BEFDE7C0464CA1001000
:10368000689D001010B50148FFF7E4FF5CA1001031
:1036900030B50C2083B000F047FBFEF73FFF002859
:1036A0000ED0944B944A1A605A609A60DA601A619C
:1036B0005A619A61DA611A62904A5A6203B030BD67
:1036C0008F4CA06700F084FB01228E4B1A60636C64
:1036D000012BFCD103228C4B1A60894A936B012B7E
:1036E000FCD102240121894A89480533009400F065
:1036F000C9FA0523874A01218748009400F0C2FADD
:10370000864B5A68FF2A02D8802252005A608022D3
:10371000784C7D4B21691201804D1A60002905D03B
:10372000606901F001FF01300138FDD1E0217B4BE0
:1037300002201A681140802252012A431160196840
:10374000484003210140116004219A681142FCD0D5
:103750008022802192012A430901116080225200B7
:103760005A606F4B23616F4B5968FF2900D85A602C
:1037700003226C48634B01211A60020093681942CE
:10378000FCD0E02513681D4080235B0103431D60CE
:1037900012684A400321114019600221614A93686E
:1037A0001942FCD0802380219B0103430901196049
:1037B00080215D4B4900516063615C4B5A68FF2A70
:1037C00000D8596080225A4BE1691201574D1A60A6
:1037D000002905D0606901F0A7FE01300138FDD154
:1037E000E02252490B681A4080235B012B431A6088
:1037F000802380229B012B4312011A6080223E4BC2
:1038000052004A60E3614B4B5968FF2900D85A6067
:103810008022494B216A1201464D1A60002905D0C9
:10382000606901F081FE01300138FDD1E02241499B
:103830000B681A4080235B012B431A60802380228F
:103840009B012B4312011A60802380225B004B6096
:10385000294BD2022362394B5968914200D25A60F7
:103860008022374B616A1201344D1A60002905D05D
:10387000606901F059FE01300138FDD1E0222F4985
:103880000B681A4080235B012B431A60802380223F
:103890009B012B4312011A608023DB024B60174B04
:1038A0006362284B5A68FF2A02D8802252005A606D
:1038B0008022254BA1691201224D1A60002905D0F2
:1038C000606901F031FE01300138FDD1E0221D496F
:1038D0000B681A4080235B012B431A6080238022EF
:1038E0009B012B4312011A6080235B004B600E4B3F
:1038F000A361E3E67C130020006CDC021BB7000030
:10390000008000403CB0004030B00040002F6859BB
:103910000080024000389C1C00C002403080004003
:10392000001BB7003C8000404059730754800040A2
:1039300054B000406080004060B000406C800040A7
:103940006CB000404880004048B00040014B80000F
:10395000C05870477C13002001238340002904D005
:10396000034A1360034A13607047034A1360FBE77E
:1039700080E200E000E100E080E100E0012383401C
:10398000014A13607047C04600E200E0024B10306D
:103990009B688000C058704700ED00E070B50D00D6
:1039A000EFF3108672B60F4A1368002BFCD0BFF3FA
:1039B0005F8F0D4B10309B6884001B590B4A93425C
:1039C00003D09D4201D0FFF75DFE074B9B681D5160
:1039D000BFF35F8FBFF35F8F0022024B1A6086F345
:1039E000108870BD240100D000ED00E0CD01001072
:1039F000F0B5DE4657464E464546E0B50C0083B06E
:103A0000EFF3108A72B65B4A1368002BFCD0BFF349
:103A10005F8F1022914681444A46574B96009B681F
:103A20009D59564B98469D4205D0A54216D0544FFD
:103A3000EB1B2F2B14D9504B9B689D51BFF35F8F0D
:103A4000BFF35F8F00224B4B1A608AF3108803B0DC
:103A50003CBC90469946A246AB46F0BD1D00EAE745
:103A6000012383409B465A46464B1B681A400092EE
:103A70005A46454B1A60BFF35F8FFCF7F4FB019089
:103A8000002803D0814501D0FFF7FCFD01232A0067
:103A90009A4313003D49DB1B5B415943090D936871
:103AA0009C4208D15BE043001B189B00FB18986800
:103AB000A04211D01A00062010560028F3DA009B0D
:103AC000002B05D05A46324B1A602E4B1A60B2E7D3
:103AD0005A462D4B1A60AEE706201856002822DB06
:103AE0004200111889007C188846A1689960E17924
:103AF000D971062161569971A1797F291FD8A488AF
:103B0000F91A6405241544440919E0240905490DEE
:103B100024022143998012181E4B9200BF181A7874
:103B20001870BA71CBE7019800280BD1FF30907163
:103B300019489080174A107811709871BFE7BD211D
:103B40000902E7E7154A1649D21A083A5002400D11
:103B500001439980134952080A43DA80AFE70620EF
:103B6000105613000028BBDA019A002AEAD1454614
:103B7000E0E7C046240100D000ED00E0CD010010D8
:103B80004C04002000E100E080E100E0AAAA00006F
:103B900080E200E0D918002000BDFFFF860400206D
:103BA00000F0FFFF00F8FFFFF8B501250400054312
:103BB000FCF759FB0300EFF3108672B621490A683F
:103BC000002AFCD0BFF35F8F1F4A20001F49801AD4
:103BD00040414143090D1E489B00876849B2FF5888
:103BE000AF421CD00623D3568B421CD01223D3568F
:103BF0008B4222D01E23D3568B4220D02A23D35669
:103C000003208B4210D0134B1A781970A271BFF3A6
:103C10005F8F00220B4B1A6086F31088F8BD826814
:103C20000D48D050EFE7002043001B189B00D2182E
:103C3000FF239371094B9380E5E70120F4E702200D
:103C4000F2E7C046240100D04C040020AAAA0000DC
:103C500000ED00E0D9180020CD01001000BDFFFFED
:103C6000054B064A1360064A136053609360D360A5
:103C700013615361936170478080808000E400E0AD
:103C800004E400E0F8B504000C2017001D000E004D
:103C900001F04AFC4101091A8B01591AC90009189F
:103CA0008901380001F040FC069A2B0412031343EB
:103CB0002268002A21DB184AA21851424A41802179
:103CC00049018C4652420A40144962440A60144930
:103CD0000A60144917008D68AF43FBD1C021221D33
:103CE0008901114321222660A0600A602268002A0F
:103CF000FCDAE36008230B60F8BD3F2221680A402C
:103D0000B242D8D1A2681205120D8242D3D1E26824
:103D1000002BD0D1F0E7C0460040FDBF00E00040DE
:103D200000F0004000C000408023024A9B00034393
:103D3000D36270470080054010B5140080221B4BF1
:103D4000D2051A6000281AD00123194A1843194BCA
:103D5000DA61194A42401A62596298628022134B12
:103D6000D2051A601549164A1160E022D2041A6081
:103D7000002C07D18022134B12061A6010BD0D4B88
:103D8000D861EBE780236201121B92001219120125
:103D90005B049A4200D30C4A0C4B1A60054B5A60E4
:103DA0008022084BD2051A60E8E7C04600B0054003
:103DB000D3C007B0008005402D3FF84FFCFF010045
:103DC0000820014000A00540FFFFFF001C18002054
:103DD000AA23064A1B0113602F230549D360054B14
:103DE00019605368002BFCDA7047C046004002405F
:103DF00000B0FA00006002407047C046F8B5574670
:103E00004E46DE464546E0B51F000A9B05009B4630
:103E10000D9B0E00914692469B0718D10B9B0C9A66
:103E2000934214D213000B9AB8469B1A4B444C464B
:103E30000F0006001D0022004346013439002020F7
:103E4000B047AC42F7D1AA4635003E0047460B9B2F
:103E5000002B38D09A441C00D04653461A1B5B46B0
:103E6000013C185D31003B00A847002CF5D10D9BAB
:103E70009B0721D543464A469C1A0C9BA3421BD95B
:103E80003A009A464F469146E2194B4631002020AF
:103E90000134A8475445F7D343460C99DB1B013343
:103EA000B9460022994203D343464A1E4A44D21AD5
:103EB000434690460133984440463CBC9046994660
:103EC000A246AB46F8BDD046D1E7C046F0B54F4656
:103ED0004646D646C0B584B098460EAB1B78129FB6
:103EE000994694460D9C109B119EBA0725D4002E2E
:103EF00069D19C4200D3C2E001223A4092461F2C75
:103F000000D9BBE00C9A551E302201E0202C03D0D2
:103F100001342A55A342F9D85246002A0DD0B442A2
:103F20000BD21F2C62D80C9A551E302201E0202C97
:103F30005CD001342A55B442F9D1FA0635D57A0558
:103F40005DD4002C57D10F9B102B00D17CE00F9B30
:103F5000022B00D18DE030230C9A012413704B46C4
:103F6000002B27D02D230C9A135501340C9B62464D
:103F700000930397434602960194FFF73FFF04B076
:103F80001CBC90469946A246F0BDBB0663D4202CCB
:103F9000ECD00C9B1A19013478231370202CE5D037
:103FA00030220C9B1B191A700134202CDED04B469A
:103FB000002BD7D17B0735D43B07D7D520230C9ACC
:103FC00013550134D2E7012215003D40AA463A427A
:103FD00020D04A46002A2AD10C323A4227D19C42AC
:103FE0009DD21F2C00D88DE7202E19D92024FA0647
:103FF000BCD57A0503D4A3421BD0A64219D00F9B8F
:10400000102BC2D0022BC9D1202CAFD00C9B1B1976
:10401000013440E09C4200D38FE71F2C00D871E7A9
:1040200020248AE72B230C9A135501349EE7013E86
:10403000D5E7631E012C00D185E70F9A102A20D006
:10404000022A25D01C00ABE7BB060DD478230C9ABE
:1040500001241370A4E7202C00D187E758220C9B81
:104060001B191A70013499E758230C9A0124137014
:1040700096E70C9A60330124137091E72024002600
:104080005BE7023CBA06E9D40C9A12191C0083E7DC
:104090000C9A9246534462221A707FE710B50028AA
:1040A00000D110BD02F0FEF9FBE7C0460B0010B5D1
:1040B000002802D049681B68984710BDF0B5DE465D
:1040C000574645464E46E0B59BB09B46249B0A901A
:1040D0009846259B0B910C924046424619009A4601
:1040E00001F0F3FC002800D0E8E0012240465146F0
:1040F0007F4B524201F0E4FC002800D0DEE00122B8
:10410000404651467B4B524201F0C4FC002800D08F
:10411000D4E0002200234046514601F0BBFC0028B9
:1041200000D0CAE15346C14609938023289ADB0098
:104130001A400E92289A1A4201D1062326934C4621
:10414000099B234300D0D9E0289B002600271B05AC
:1041500000D4AEE100230D93269B19000D9B9942DC
:1041600000DCB0E1C81A431E26938023289ADB00A6
:104170001A430023002528920D93279B0024AB426D
:1041800000D95C1B0223289A1A400E92289A1342E7
:1041900003D06B426B415B421C400D9B002B07D050
:1041A0004846099932003B0001F013FC8146099111
:1041B000002200234046514601F06CFC002805D047
:1041C000802000068446099961440991289A4A4B47
:1041D0000A9E13404A460493269B0B990293099B1F
:1041E00003940092019330005B460C9A884600F0DD
:1041F000A1F90400002D72D0289B220098061F23ED
:10420000C017984341465B466530B0470D9B671C1D
:10421000DA179C18DB0F98466B1E99460025544010
:1042200001E0202D13D00AAA94461F2320006344E6
:104230000A2101355E1901F077F930313170200023
:104240000A2101F071F926000400092EE9D805239E
:1042500006934B460593002304930A330393434686
:104260003A000A9E0B9F029312AB009339005B4603
:1042700030000195FFF72AFE0E9B0400002B2ED084
:104280000C9B279AC51AAA4229D93C008146984618
:104290001700434621005A1920205B460135B047DC
:1042A000AF42F6D84C460C992798631A0133002286
:1042B000984200D30AE10134141910E0289B4246C9
:1042C0000493279B0B990393269B0A9802935346CA
:1042D000009201935B460C9A00F02CF90400200038
:1042E0001BB03CBC90469946A246AB46F0BDC046CA
:1042F000FFFFEF7FFFFFEFFFFFF7FFFF764B099D0B
:104300009C466800400D604401F0F2FB734A744B18
:1043100001F07DFB734A744B01F052FB2B03734A8F
:104320001B0B1A4306000F00714B11004846002278
:10433000099501F03CFB6F4A6F4B01F068FB0200EE
:104340000B003000390001F03BFB01F0E9FB0D9060
:1043500001F0CEFB694A6A4B04000D0001F057FBE7
:104360000022684B01F02CFB01F0DAFB664A0600E4
:10437000664B2000290001F04AFB040030000D00CC
:104380000F9601F0B5FB624A624B01F040FB020060
:104390000B002000290001F00AFB02000B000600C0
:1043A0000F0001F034FB320004000D003B00300030
:1043B000390001F005FB002210901191564B2000AE
:1043C000290001F006FB0022544B01F0F9FA02002B
:1043D0000B002000290001F0FCFA0022504B01F0F4
:1043E000EFFA02000B002000290001F0F2FA0D00A4
:1043F000802132003B000400C905002001F0D7FAFB
:1044000002000B002000290001F0DAFA02000B0084
:104410001098119901F0DDFA0022344B01F0D0FA26
:10442000404A0F9B9446634400221B0501F0EFFABB
:1044300006000F0002000B004846099901F02AFB14
:1044400000280AD00D9B3000013B39000D9300225B
:10445000324B01F0BEFA06000F00C6250D9933005D
:1044600063318D42AD4128996D420435090500D470
:1044700083E63B4300D16FE6099C484621002A4A67
:104480002A4B01F015FB002808D0002248462100E5
:10449000274B01F0FFFA002800D05DE6269B002B99
:1044A00000D16AE60E9B5A1E9341269AD31A269390
:1044B00063E6002304250D935FE680231B06534427
:1044C000C146099331E6002326934EE60A0084464E
:1044D000013A6244121BEEE601FCFFFFFB799F509C
:1044E0001344D33FB3C8608B288AC63F0000F03F17
:1044F0000000F83F61436F63A787D23F71A379093A
:104500004F930A400000E03F1655B5BBB16B024027
:10451000EF39FAFE422EE63F00002C400000244016
:1045200000001840FF0300002D431CEBE2361A3F49
:1045300080842E41F0B54E46DE4657464546E0B5EE
:1045400097B09946209E219F229B834698460791CB
:104550000C923B0032003000390001F0B6FA00281E
:1045600000D0C1E1012230003900CA4B524201F0B3
:1045700091FA002800D0E0E0012230003900C64B5B
:10458000524201F09DFA002800D0B6E0002230002F
:104590003900C24B01F094FA002800D098E00022C4
:1045A00030003900BE4B01F075FA002800D08FE0D2
:1045B000002200233000390001F06CFA002800D0FE
:1045C000B0E000230D93249B5B0501D4062398469D
:1045D00008AB9C461722002430234146624404E085
:1045E000013413550139202C01D00929F8D8884607
:1045F0003000390001F094FA4346DA00A94B050077
:104600009B181A685B680892099301F071FA02001E
:104610000B003000390001F0CAF9089A099B01F03B
:10462000F6F90A900B9101F09FFA824601F05CFACC
:1046300002000B000A980B9901F0B9F900229A4B7D
:104640000A900B9101F03CFA002800D1C0E0012350
:104650009C46E244504601F047FA02000B000898DD
:10466000099901F01DFA002802D000239A4601356D
:104670004346002B69D008AB17269C460895664434
:10468000554614E001235B4243440A2128009A4620
:1046900000F04AFF013430313719397028000A21FF
:1046A00000F042FF092D00D8D5E0D0460500202CAF
:1046B000E8D10323249A1340012B00D100E10EAB73
:1046C0009846249B01940393239B029343461EE048
:1046D000249B58460493239B0096019703934346DB
:1046E0000C9A029307994B46FFF7E8FC17B03CBCC5
:1046F00090469946A246AB46F0BD249B5B070ED47C
:1047000003226A4B24990192039123990291009309
:1047100058464B460C9A0799FFF770FBE6E70422D0
:10472000634BEFE73B0032000020002101F03FF92E
:10473000012306000F000D9345E7249B0393239B61
:104740000293042301935B4BE1E7280001F0D0F9C9
:1047500002000B003000390001F029F9524B002211
:1047600006000F0001F096F90EAB984600280AD11A
:104770000022300039004C4B01F0A2F9002802D190
:10478000EB0700D50135202C32D008AA9446172318
:10479000280063440A2101341E1900F09DFE3031C7
:1047A000280031700A2100F097FE051EEBD103238B
:1047B000249A1340012B00D191E01F2C00D980E7EF
:1047C0000D9B002B3BD02D2342461355013478E737
:1047D00000220A980B99344B01F05CF9002800D0B4
:1047E00046E75346002B67D101239C46E2443FE74E
:1047F0000323249A1340012B00D062E7239B002B54
:1048000000D15EE70D9B002B03D1249A0C33134299
:1048100002D0239B013B2393239B9C42CDD208AB28
:104820009C461722302362441F2C06D8239901345A
:1048300013558C42C1D0202CF8D1202441E7249B71
:104840005B0721D4249B1B0700D43AE72023424670
:104850001355013435E75746089D202C37D02200E8
:1048600030214046002F08D00132B154202A43D0D5
:10487000D3431B191B18002BF6D10EAB98462E23E1
:104880004146541C8B547EE72B234246135501347A
:1048900017E7C046FFFFEFFFFFFFEF7F65CDCD417C
:1048A00065CDCDC160A300100000E03F68A10010FD
:1048B0006CA1001078A10010DB0700D4D8E693E7C4
:1048C000239B002B00D1FAE60EAB98469AE7032310
:1048D000249A1340012B00D0F1E60EAB9846239B9F
:1048E000002B00D169E78DE7249B0393239B029360
:1048F00003230193064B0AE70323249A2024134041
:10490000012B00D0DBE6239B2024002BDCD1D6E654
:1049100074A10010F0B5DE464E4657464546E0B558
:104920009FB01C00289B93460993CF4ACF4B8946E2
:1049300008901A60002900D116E2002320789A46D8
:10494000002800D118E226001D004C460AE02A008B
:104950006F1C5B46089D2100A8473D00013630785A
:1049600000287AD02528F2D110239A46083B994690
:10497000043B9846023B00219C46721C10781600AE
:104980000300203BDBB2102B03D8B94F9B00FB5830
:104990009F460300303B092B3CD900230A932A2869
:1049A00000D171E0002398462E2847D00300683BD1
:1049B000DBB2122B1FD8AF4A9B00D3589F4601236E
:1049C00001321943DAE7634601321943D6E7434619
:1049D00001321943D2E7534601321943CEE74B4621
:1049E00001321943CAE770786C2800D1BFE28023F6
:1049F0005B00194301360300253BDBB2532BA6D8DD
:104A00009D4A9B00D3589F4680235B0070781943D2
:104A10000136F0E700270300B800C0190136400056
:104A2000C018337830381A00303A0700092AF3D911
:104A30000A901800002398462E28B7D1802370785A
:104A4000DB0019430300303B721C092B00D895E1B1
:104A50002A2800D1A6E11600A8E7A146AA462C0004
:104A6000D34503D801235B425B449A465B465246DA
:104A700049460020089DA84720001FB03CBC904636
:104A80009946A246AB46F0BD099B40CB0A96002E44
:104A900003DB50780993561C84E7283801437042A1
:104AA0000A9009935078561C7CE7782800D1D4E10D
:104AB000582800D168E26F2800D152E3622800D163
:104AC000D8E110230A009A430B92692801D000F024
:104AD000A2FC0A230C934B0500D4D5E101230B9AC9
:104AE0009A430B92692800D1CEE1642800D1CBE132
:104AF0000B9A802311009B0019408A461A4200D06D
:104B000032E3802311005B00194089461A4201D02C
:104B100000F002FC13005B0600D510E30B9B1B06A4
:104B200001D400F06EFC099B04CB1204120C9246D7
:104B300009935346002B00D064E30B9A1033110005
:104B400099430B91520500D45CE3002399460B9BDB
:104B500006930A9B0593434604930C9B03930023FF
:104B6000DEE27078682800D107E28023013619431D
:104B700041E780239B007078194301363BE74628C4
:104B800000D174E10722099B0491073393430A9AE9
:104B900019000392424602920CC9089800920193B0
:104BA00009912A005B462100FFF7C4FC013605008D
:104BB000D5E6099B1A0008CA9146002B00D105E1F1
:104BC000212211438A460EA884461F21614409957B
:104BD00000220F27A4460D0002E0202A0CD00B0073
:104BE0003C001C4020003730092C00D80738013227
:104BF000A85419090F2BF0D86446099DF0E08B07E3
:104C000000D4D1E1099B2A0099466B1C98464B467B
:104C100001CB21009946089F5B46C0B2B8470A9B6A
:104C20009C466544012B00D890E2B2465E4647465A
:104C3000A846089D3A003300013721002020A847EC
:104C40004745F7D1B3464B4656463D0009930136DA
:104C500085E62A006F1C5B46089D21002520A84799
:104C600001363D007BE6C0461549001018180020AB
:104C700080A10010C4A1001010A20010099B04CB59
:104C8000994643460992002B00D097E013789C4642
:104C9000002B00D1B3E302235B425A1C099B9246CE
:104CA00018000A9F0B92504402E0834200D169E150
:104CB0005A780133002AF8D1099A0A979B1A0B9364
:104CC00080230A00DB001A400C92194204D00B9B8F
:104CD000434501D943460B9302231A000A400D9223
:104CE0000B4200D184E16046002823D00C9B002BAE
:104CF00000D124E1A844C246099B57465B1B984655
:104D0000089BB2462A0026005C469B4609E0230029
:104D10003100551CD8474346585D002800D13FE17B
:104D20002A009742F3D1A3463D00340056460D9B1E
:104D3000002B69D00B9B0A99A846994264D98C46EE
:104D40006544ED1A089B47469A46B04626005C46E5
:104D50003A002300013731002020D047AF42F7D17D
:104D6000A346340046464FE0D24B207808930023F8
:104D70009A46002800D0E6E5002471E64346060086
:104D80000A9F9800C018013240008019167803006D
:104D900030003038303B0928F3D9300098461600EF
:104DA0000A9703E6099B023604CB9046D24340465D
:104DB000D2171040804609933078F7E513789C4667
:104DC000002B00D11AE34346013B66E7102208009E
:104DD00090431132104382460022490500D4F2E686
:104DE00053460693082305934346049310230393E5
:104DF0000023029316AB019200932A005B46210028
:104E00000898FFF763F805004B4601360993A6E5BD
:104E1000202302009A43472A04D180231B0119430F
:104E200002239843452801D1202319430722099BD7
:104E30000491073393430A9A19000392424602925F
:104E40000CC908980092019309912A005B46210041
:104E5000FFF734F90136050081E510230C930C238C
:104E60000A009A430B924B0500D43BE636E620231A
:104E7000194387E602230C930B910B996428EED11A
:104E80000B9B5B0500D529E60B9A802311009B0044
:104E900019408A461A4200D0CEE0802311005B0000
:104EA000194089461A4200D0DBE113005B0600D5A9
:104EB0001DE10B9B09991B0600D499E208C91BB29E
:104EC000D8171A18424092B209919246DA0F1292FC
:104ED000002B09D1802310220B99DB000B4091435A
:104EE0000B91002B00D012E10B9A6123920600D5A2
:104EF00041230EA91F228C46DBB262440A3B57466F
:104F00001395A2464D460C9CB1460D9316000AE03F
:104F10003033DBB201357355A74200D21CE1202D9E
:104F200000D119E107002100380000F0FDFACBB2F2
:104F30000929EDD90D9A94466344DBB2EAE7099B4F
:104F40005F465B1B98460A9BB3469A462600089C20
:104F50002A003B003100A04743460135585D002838
:104F6000F6D1534634000A935E46BB46DFE6C023C3
:104F70009B00B078194302363DE5C023B078194351
:104F8000023638E50A979BE60C230A009A4314334D
:104F90001A4310230B920C934B0500D4A8E59DE512
:104FA000A34634005646C2E60A9A012A00D82EE2E9
:104FB0006B1E9F18089BB046994626005C462A0047
:104FC0002300013531002020C847BD42F7D1A34658
:104FD00034004646099B3A0001CB210098467D1CCF
:104FE0005B46089FC0B2B847434601360993B6E412
:104FF0000B9A0A98531C904200D80AE243199B1A54
:105000001F00089BB24626005C469B462A002300F0
:10501000013531002020D847BD42F7D10A9BA34675
:1050200001330B93099B34001B7856469C4660461F
:10503000002800D05AE6E7E60722099B073393438E
:10504000013294469C4462465F6809921A68FB17D5
:105050001093119310981199030053400E930B0075
:105060007B400F9394460E9A0F9B121A8B410E921F
:105070000F93FB0F6246129300233A439A463DD0AA
:105080000B9A6123920600D541230022DBB20EA9C0
:105090000A3B8C4691460D9343461F32624413955A
:1050A00015964D460E9E0F9FA14690460C9C14935C
:1050B0000FE0C046F93D00103032D2B24346013510
:1050C0005A55BA4500D17CE1202D00D17CE1060083
:1050D0000F00220000233000390000F067FAD2B23E
:1050E000092AE9D90D9B9C466244D2B2E6E7FF2328
:1050F000099904C913401A000991E6E60B9A103386
:10510000110099430B915205BAD5002399460B9B88
:1051100006930A9B0593434604930C9B0393129BAF
:1051200002934B46019316AB2A00009321005B4685
:105130000898FEF7CBFE01360500FFF710FCFF22B2
:10514000099B02CB11408A460993F2E44B4645463F
:1051500009930136FFF703FC4E465446A946139DBA
:10516000D5E708230C9387E60722099B073393436F
:10517000013294469C44624609921A685B681000AA
:105180009A4613005246134307D10B9A103311006D
:1051900099430B91520500D5D7E40B9A61239206EF
:1051A00000D541230022DBB20EA90A3B8C46914672
:1051B0000D9343461F32624457461295A2464D4610
:1051C0000400B14690460C9E13930DE03032D2B2EB
:1051D000434601355A550023BB4200D1FDE0202D46
:1051E00000D1FDE004000F00320000232000390050
:1051F00000F0DCF9D2B2092AE8D90D9B9C46624442
:10520000D2B2E5E70B9A6123920600D54123DBB2C7
:105210000EA90A3B1F228C460D932300624454467C
:10522000129517004D469A46B1460C9E08E0303361
:10523000DBB201357B55B4420ED3202D0CD00400D7
:105240003100200000F070F9CBB20929EFD90D9A96
:1052500094466344DBB2ECE74E465446A946129DA1
:1052600075E4099B1A0008CAD91713925A184A40C4
:105270009146DA0F1292002B08D1802310220B994D
:10528000DB000B4091430B91002B2BD10B9A612338
:10529000920600D541230EAA1F279446DBB20A3B93
:1052A0000D95674455460993A2464C46B1460C9E5F
:1052B00008E03033DBB201357B55B4420ED3202DEC
:1052C0000CD004003100200000F02EF9CBB20929E7
:1052D000EFD9099A94466344DBB2ECE74E46544654
:1052E000AA460D9D0B9B2A0006930A9B210005935D
:1052F000434604930C9B08980393129B0136029338
:105300005346019316AB00935B46FEF7DFFD139BFC
:1053100005000993FFF723FB099B04CB91461293E9
:10532000002A08D1802310220B99DB000B40914307
:105330000B91002B2BD10B9A6123920600D54123B0
:105340000EAA1F279446DBB20A3B0D9567445546CB
:105350000993A2464C46B1460C9E08E03033DBB2BE
:1053600001357B55B4420ED3202D0CD00400310002
:10537000200000F0D9F8CBB20929EFD9099A944658
:105380006344DBB2ECE74E465446AA460D9D0B9BA8
:105390002A0006930A9B21000593434604930C9B25
:1053A00008980393002302935346019316AB00938E
:1053B0005B46FEF78BFD129B050009930136FFF754
:1053C000CEFAB44200D87FE6149B4C460E960F9757
:1053D000A9469846159E139D99E6A64200D8FEE67A
:1053E000139B4E469846A9465446129DFFF7AFFBC5
:1053F00008C9D8171A184240099166E500230B9393
:105400005EE4099B04CB92460993FFF792FB2F00C1
:10541000E0E50B930BE6063B0C932EE500B585B05B
:105420000391012102900093034813004A4202A90C
:10543000FFF770FA05B000BDAD40001010B5094A85
:105440000300146884B0002C08D0012200910648A3
:10545000524203A9A047012004B010BD01F074F826
:105460000020F9E7181800209D4000100148042191
:10547000014B1847A00400209D540010142310B5C0
:105480000100188804331B88984710BD162310B5F7
:105490000100188802331B88984710BDF0B5C64636
:1054A00000B5002916D014230400012598461827BA
:1054B000890046184346216818883B88984701C4EC
:1054C000431E984140420540A642F3D1280004BC47
:1054D0009046F0BD0125F9E7124A936F9B0815D25B
:1054E0009066D166002905D0FFE7FFE7FFE7516F1F
:1054F000106F704704B580210906C217514000287B
:1055000000D0C84304F058FB002104BDF0B5146E70
:10551000556E576F166FFFF7E3FF146655665767B2
:105520001667F0BD000000D0114A936F9B0813D29C
:1055300010665166002905D0FFE7FFE7FFE7516FCE
:10554000106F704704B5002801D00020C04304F05C
:1055500033FB002104BDC046F0B5146E556E576F85
:10556000166FFFF7E5FF1466556657671667F0BDBF
:10557000000000D094464E4A926F9208624601D2D3
:1055800030E0C046F0B54A4EB56F6D08FCD3346EBE
:10559000756E776F366F00F025F89446444A1466AE
:1055A0005566576716676246F0BDC0469446404A46
:1055B000926F9208624601D258E0C046F0B53C4E68
:1055C000B56F6D08FCD3346E756E776F366F00F073
:1055D0004DF89446364A1466556657671667624614
:1055E000F0BDC046002B24DB11D000293EDA00B507
:1055F000C943404200D1013100F038F8C94340426C
:1056000000D10131DB43524200D1013300BD002AF9
:10561000EBD1002801D1002905D00020C90FC9070E
:1056200001D1C043410800B504F0BEFA00220023B6
:1056300000BD00B500290ADBDB43524200D1013333
:1056400000F014F8C943404200D1013100BDC94304
:10565000404200D10131DB43524200D1013300F01E
:1056600005F8DB43524200D1013300BD002923D1AC
:10567000002B18D1002A0CD0BC460D4F38667A6634
:1056800000210023FFE7FFE7FFE77A6F386F6746E7
:105690007047002801D00748010000B504F084FAE3
:1056A0000022002300BD02000B00002000217047F3
:1056B000000000D0FFFFFFFF002B00D0BFE0130C65
:1056C00028D1002AE7D080B4114F39667A66FFE707
:1056D000FFE730B4040C7B6F396F1B0423433B6638
:1056E0007A66FFE7FFE7FFE7C04684B27B6F3D6F56
:1056F0001B0423433B667A66FFE7FFE7C0460023AF
:105700002C042D0C7A6F386F00196941B0BC7047BA
:10571000000000D0F0B594460025140E01D112020D
:105720000835140F01D112010435940F01D19200F4
:105730000235D40F01D152000135D40B0134254F6D
:105740007C66254C3C660E0C93B2FFE7FFE7FFE753
:105750003C6F6643360C7703BE467343DF0B5B0436
:10576000C01AB941130C7343DB18C91ACE0866433B
:10577000360CB64493B273431F0F1B01C01AB941D4
:10578000130C73431F0B1B05C01AB941860D8F0202
:105790003E436643360C092D24DB520A7243801ABD
:1057A0007703460A6643360C16235B1BDE40DF4058
:1057B000BF1964466643821B7046043506330100F8
:1057C000D940A840C01900D30131A24206D200231B
:1057D000F0BD0000000000D0FFFFFFFF121B0130F2
:1057E000F3D3F1E709277F1BFE406446A2B2724360
:1057F000801A00D20139220C7243130C1204821A4F
:1058000099410B007046043513370100F940A84058
:10581000801900D30131002B02D1A2420AD2F0BD7F
:10582000013000D30131121BFAD2013BF8D1A24260
:1058300000D2F0BD013000D30131121BF7E7F0B503
:105840001C0C00D080E00CB400251C0A04D11B0203
:10585000160E3343120208351C0B04D11B01160F20
:105860003343120104359C0B04D19B00960F334344
:1058700092000235DC0B02D192185B4101351C000D
:10588000971864410134464F7C66464C3C660E0CCA
:10589000FFE7FFE7FFE7C0463C6F6643360C770340
:1058A000BE4697B27743C01B00D20139C01B00D25D
:1058B00001399FB27743C91BC91B170C77437E047C
:1058C000FF0B801BB941CE086643360C0C2D33DB31
:1058D000B644120B1F053A431B0B97B27743C01B0C
:1058E00000D201399FB27743C91B170C77433E049E
:1058F0003F0C801BB941860D8F023E43664329272A
:105900007F1BFE400C3D7746AF40BF1930BCA2B2B2
:10591000ABB272437343801A9941220C7243130C49
:105920001204801A994102000B000137001BA941A3
:10593000F9D2781E0021F0BD0C277F1BFE40774670
:105940007F0BAF40FF19E0E700245D1C07D0144F28
:105950007D663966FFE7FFE7FFE7FFE73C6F95B23B
:105960009EB265436643401BB141150C1E0C654356
:10597000664336042F0C3E432D04401BB14199422F
:1059800004D202000B0020000021F0BD01D19042A2
:10599000F7D3801A994101349942F2D3F6E7000017
:1059A000000000D0FFFFFFFF48404140484018B4CE
:1059B0001B4B5B68FC46019308BD04DF735C001061
:1059C00018B4174B1B68FC46019308BD00DF7D5CD3
:1059D00000109446134A926F920809D2624618B496
:1059E0000F4BDB68FC46019308BD0CDF355F0010F0
:1059F0000C4AF0B5146E556E576F166F6246FFF77E
:105A0000EEFF084A1466556657671667F0BD18B46E
:105A1000034B9B68FC46019308BD08DFD95D00106D
:105A2000E0180020000000D0FFB550404240504038
:105A300059404B40594000E0FFB5154F4C00640DF4
:105A400003D0BC4204D10C0314D80020090D090571
:105A50005C00640D03D0BC4204D11C030AD80022B0
:105A60001B0D1B0501264B4009D44B4003D58B422F
:105A700000D18242FFBD9942FCD19042FFBD0B4351
:105A8000DB1803431343F5D0C9434918FFBD000099
:105A9000FF07000000B5FFF7CFFF804100BDC04603
:105AA00000B5FFF7C9FF01D9002000BD012000BDEE
:105AB00000B5FFF7B9FF01D9002000BD012000BDEE
:105AC00000B5FFF7B1FF804100BD012040054A004D
:105AD000121804D85A00121801D80020704701206B
